{
  "_format": "hh-sol-artifact-1",
  "contractName": "UMGContract",
  "sourceName": "contracts/UMGContract.sol",
  "abi": [
    {
      "inputs": [
        {
          "internalType": "string",
          "name": "URI",
          "type": "string"
        }
      ],
      "stateMutability": "payable",
      "type": "constructor"
    },
    {
      "anonymous": false,
      "inputs": [
        {
          "indexed": true,
          "internalType": "address",
          "name": "owner",
          "type": "address"
        },
        {
          "indexed": true,
          "internalType": "address",
          "name": "approved",
          "type": "address"
        },
        {
          "indexed": true,
          "internalType": "uint256",
          "name": "tokenId",
          "type": "uint256"
        }
      ],
      "name": "Approval",
      "type": "event"
    },
    {
      "anonymous": false,
      "inputs": [
        {
          "indexed": true,
          "internalType": "address",
          "name": "owner",
          "type": "address"
        },
        {
          "indexed": true,
          "internalType": "address",
          "name": "operator",
          "type": "address"
        },
        {
          "indexed": false,
          "internalType": "bool",
          "name": "approved",
          "type": "bool"
        }
      ],
      "name": "ApprovalForAll",
      "type": "event"
    },
    {
      "anonymous": false,
      "inputs": [
        {
          "indexed": true,
          "internalType": "address",
          "name": "previousOwner",
          "type": "address"
        },
        {
          "indexed": true,
          "internalType": "address",
          "name": "newOwner",
          "type": "address"
        }
      ],
      "name": "OwnershipTransferred",
      "type": "event"
    },
    {
      "anonymous": false,
      "inputs": [
        {
          "indexed": true,
          "internalType": "address",
          "name": "from",
          "type": "address"
        },
        {
          "indexed": true,
          "internalType": "address",
          "name": "to",
          "type": "address"
        },
        {
          "indexed": true,
          "internalType": "uint256",
          "name": "tokenId",
          "type": "uint256"
        }
      ],
      "name": "Transfer",
      "type": "event"
    },
    {
      "inputs": [
        {
          "internalType": "address[]",
          "name": "_addedAddressesList",
          "type": "address[]"
        }
      ],
      "name": "addAddressesToWhiteList",
      "outputs": [],
      "stateMutability": "nonpayable",
      "type": "function"
    },
    {
      "inputs": [
        {
          "internalType": "uint256",
          "name": "_newPrice",
          "type": "uint256"
        }
      ],
      "name": "adjustMintPrice",
      "outputs": [],
      "stateMutability": "nonpayable",
      "type": "function"
    },
    {
      "inputs": [
        {
          "internalType": "address",
          "name": "to",
          "type": "address"
        },
        {
          "internalType": "uint256",
          "name": "tokenId",
          "type": "uint256"
        }
      ],
      "name": "approve",
      "outputs": [],
      "stateMutability": "nonpayable",
      "type": "function"
    },
    {
      "inputs": [],
      "name": "availableTokenCount",
      "outputs": [
        {
          "internalType": "uint256",
          "name": "",
          "type": "uint256"
        }
      ],
      "stateMutability": "view",
      "type": "function"
    },
    {
      "inputs": [
        {
          "internalType": "address",
          "name": "owner",
          "type": "address"
        }
      ],
      "name": "balanceOf",
      "outputs": [
        {
          "internalType": "uint256",
          "name": "",
          "type": "uint256"
        }
      ],
      "stateMutability": "view",
      "type": "function"
    },
    {
      "inputs": [],
      "name": "circuitBreaker",
      "outputs": [],
      "stateMutability": "nonpayable",
      "type": "function"
    },
    {
      "inputs": [
        {
          "internalType": "address",
          "name": "to",
          "type": "address"
        },
        {
          "internalType": "uint256[]",
          "name": "tokensId",
          "type": "uint256[]"
        }
      ],
      "name": "claimReservedTokens",
      "outputs": [],
      "stateMutability": "nonpayable",
      "type": "function"
    },
    {
      "inputs": [],
      "name": "contractPaused",
      "outputs": [
        {
          "internalType": "bool",
          "name": "",
          "type": "bool"
        }
      ],
      "stateMutability": "view",
      "type": "function"
    },
    {
      "inputs": [
        {
          "internalType": "address[]",
          "name": "payees_",
          "type": "address[]"
        },
        {
          "internalType": "uint256[]",
          "name": "amounts_",
          "type": "uint256[]"
        }
      ],
      "name": "disbursePayments",
      "outputs": [],
      "stateMutability": "nonpayable",
      "type": "function"
    },
    {
      "inputs": [
        {
          "internalType": "enum UMGContract.SalePhase",
          "name": "_phase",
          "type": "uint8"
        }
      ],
      "name": "enterPhase",
      "outputs": [],
      "stateMutability": "nonpayable",
      "type": "function"
    },
    {
      "inputs": [
        {
          "internalType": "uint256",
          "name": "tokenId",
          "type": "uint256"
        }
      ],
      "name": "getApproved",
      "outputs": [
        {
          "internalType": "address",
          "name": "",
          "type": "address"
        }
      ],
      "stateMutability": "view",
      "type": "function"
    },
    {
      "inputs": [
        {
          "internalType": "address",
          "name": "owner",
          "type": "address"
        },
        {
          "internalType": "address",
          "name": "operator",
          "type": "address"
        }
      ],
      "name": "isApprovedForAll",
      "outputs": [
        {
          "internalType": "bool",
          "name": "",
          "type": "bool"
        }
      ],
      "stateMutability": "view",
      "type": "function"
    },
    {
      "inputs": [],
      "name": "isMintEnabled",
      "outputs": [
        {
          "internalType": "bool",
          "name": "",
          "type": "bool"
        }
      ],
      "stateMutability": "view",
      "type": "function"
    },
    {
      "inputs": [],
      "name": "maxAvailableSupply",
      "outputs": [
        {
          "internalType": "uint256",
          "name": "",
          "type": "uint256"
        }
      ],
      "stateMutability": "view",
      "type": "function"
    },
    {
      "inputs": [
        {
          "internalType": "uint256",
          "name": "count",
          "type": "uint256"
        }
      ],
      "name": "mint",
      "outputs": [],
      "stateMutability": "payable",
      "type": "function"
    },
    {
      "inputs": [
        {
          "internalType": "uint256",
          "name": "count",
          "type": "uint256"
        }
      ],
      "name": "mintPresale",
      "outputs": [],
      "stateMutability": "payable",
      "type": "function"
    },
    {
      "inputs": [],
      "name": "mintPrice",
      "outputs": [
        {
          "internalType": "uint256",
          "name": "",
          "type": "uint256"
        }
      ],
      "stateMutability": "view",
      "type": "function"
    },
    {
      "inputs": [],
      "name": "name",
      "outputs": [
        {
          "internalType": "string",
          "name": "",
          "type": "string"
        }
      ],
      "stateMutability": "view",
      "type": "function"
    },
    {
      "inputs": [],
      "name": "owner",
      "outputs": [
        {
          "internalType": "address",
          "name": "",
          "type": "address"
        }
      ],
      "stateMutability": "view",
      "type": "function"
    },
    {
      "inputs": [
        {
          "internalType": "uint256",
          "name": "tokenId",
          "type": "uint256"
        }
      ],
      "name": "ownerOf",
      "outputs": [
        {
          "internalType": "address",
          "name": "",
          "type": "address"
        }
      ],
      "stateMutability": "view",
      "type": "function"
    },
    {
      "inputs": [],
      "name": "phase",
      "outputs": [
        {
          "internalType": "enum UMGContract.SalePhase",
          "name": "",
          "type": "uint8"
        }
      ],
      "stateMutability": "view",
      "type": "function"
    },
    {
      "inputs": [],
      "name": "renounceOwnership",
      "outputs": [],
      "stateMutability": "nonpayable",
      "type": "function"
    },
    {
      "inputs": [],
      "name": "reservedTokensMinted",
      "outputs": [
        {
          "internalType": "uint256",
          "name": "",
          "type": "uint256"
        }
      ],
      "stateMutability": "view",
      "type": "function"
    },
    {
      "inputs": [
        {
          "internalType": "address",
          "name": "from",
          "type": "address"
        },
        {
          "internalType": "address",
          "name": "to",
          "type": "address"
        },
        {
          "internalType": "uint256",
          "name": "tokenId",
          "type": "uint256"
        }
      ],
      "name": "safeTransferFrom",
      "outputs": [],
      "stateMutability": "nonpayable",
      "type": "function"
    },
    {
      "inputs": [
        {
          "internalType": "address",
          "name": "from",
          "type": "address"
        },
        {
          "internalType": "address",
          "name": "to",
          "type": "address"
        },
        {
          "internalType": "uint256",
          "name": "tokenId",
          "type": "uint256"
        },
        {
          "internalType": "bytes",
          "name": "_data",
          "type": "bytes"
        }
      ],
      "name": "safeTransferFrom",
      "outputs": [],
      "stateMutability": "nonpayable",
      "type": "function"
    },
    {
      "inputs": [
        {
          "internalType": "address",
          "name": "operator",
          "type": "address"
        },
        {
          "internalType": "bool",
          "name": "approved",
          "type": "bool"
        }
      ],
      "name": "setApprovalForAll",
      "outputs": [],
      "stateMutability": "nonpayable",
      "type": "function"
    },
    {
      "inputs": [
        {
          "internalType": "string",
          "name": "URI",
          "type": "string"
        }
      ],
      "name": "setDefaultURI",
      "outputs": [],
      "stateMutability": "nonpayable",
      "type": "function"
    },
    {
      "inputs": [
        {
          "internalType": "string",
          "name": "URI",
          "type": "string"
        }
      ],
      "name": "setTokenBaseURI",
      "outputs": [],
      "stateMutability": "nonpayable",
      "type": "function"
    },
    {
      "inputs": [
        {
          "internalType": "bytes4",
          "name": "interfaceId",
          "type": "bytes4"
        }
      ],
      "name": "supportsInterface",
      "outputs": [
        {
          "internalType": "bool",
          "name": "",
          "type": "bool"
        }
      ],
      "stateMutability": "view",
      "type": "function"
    },
    {
      "inputs": [],
      "name": "symbol",
      "outputs": [
        {
          "internalType": "string",
          "name": "",
          "type": "string"
        }
      ],
      "stateMutability": "view",
      "type": "function"
    },
    {
      "inputs": [],
      "name": "toggleIsMintEnabled",
      "outputs": [],
      "stateMutability": "nonpayable",
      "type": "function"
    },
    {
      "inputs": [],
      "name": "tokenCount",
      "outputs": [
        {
          "internalType": "uint256",
          "name": "",
          "type": "uint256"
        }
      ],
      "stateMutability": "view",
      "type": "function"
    },
    {
      "inputs": [
        {
          "internalType": "uint256",
          "name": "tokenId",
          "type": "uint256"
        }
      ],
      "name": "tokenURI",
      "outputs": [
        {
          "internalType": "string",
          "name": "",
          "type": "string"
        }
      ],
      "stateMutability": "view",
      "type": "function"
    },
    {
      "inputs": [],
      "name": "tokensMinted",
      "outputs": [
        {
          "internalType": "uint256",
          "name": "",
          "type": "uint256"
        }
      ],
      "stateMutability": "view",
      "type": "function"
    },
    {
      "inputs": [
        {
          "internalType": "address",
          "name": "from",
          "type": "address"
        },
        {
          "internalType": "address",
          "name": "to",
          "type": "address"
        },
        {
          "internalType": "uint256",
          "name": "tokenId",
          "type": "uint256"
        }
      ],
      "name": "transferFrom",
      "outputs": [],
      "stateMutability": "nonpayable",
      "type": "function"
    },
    {
      "inputs": [
        {
          "internalType": "address",
          "name": "newOwner",
          "type": "address"
        }
      ],
      "name": "transferOwnership",
      "outputs": [],
      "stateMutability": "nonpayable",
      "type": "function"
    },
    {
      "inputs": [
        {
          "internalType": "address",
          "name": "",
          "type": "address"
        }
      ],
      "name": "wallets",
      "outputs": [
        {
          "internalType": "uint256",
          "name": "_numberOfMintsByAddress",
          "type": "uint256"
        },
        {
          "internalType": "bool",
          "name": "_isInWhiteList",
          "type": "bool"
        }
      ],
      "stateMutability": "view",
      "type": "function"
    },
    {
      "inputs": [],
      "name": "whiteListCounter",
      "outputs": [
        {
          "internalType": "uint256",
          "name": "",
          "type": "uint256"
        }
      ],
      "stateMutability": "view",
      "type": "function"
    }
  ],
  "bytecode": "0x60c060405266b1a2bc2ec50000600b556000600f60006101000a81548160ff021916908360028111156200005c577f4e487b7100000000000000000000000000000000000000000000000000000000600052602160045260246000fd5b02179055506000600f60016101000a81548160ff0219169083151502179055506000600f60026101000a81548160ff0219169083151502179055506040516200655b3803806200655b8339818101604052810190620000bc91906200050f565b6064601481816040518060400160405280601781526020017f556e69636f726e204d6f746f726379636c652047616e670000000000000000008152506040518060400160405280600781526020017f554e49434f524e0000000000000000000000000000000000000000000000000081525081600090805190602001906200014692919062000355565b5080600190805190602001906200015f92919062000355565b50505062000182620001766200028760201b60201c565b6200028f60201b60201c565b808262000190919062000610565b608081815250505050600181620001a89190620005b3565b60a0818152505050508060099080519060200190620001c992919062000355565b506009600a908054620001dc906200068b565b620001e9929190620003e6565b5066b1a2bc2ec50000600b819055506000600f60006101000a81548160ff0219169083600281111562000245577f4e487b7100000000000000000000000000000000000000000000000000000000600052602160045260246000fd5b02179055506000600f60016101000a81548160ff0219169083151502179055506000600f60026101000a81548160ff0219169083151502179055505062000795565b600033905090565b6000600660009054906101000a900473ffffffffffffffffffffffffffffffffffffffff16905081600660006101000a81548173ffffffffffffffffffffffffffffffffffffffff021916908373ffffffffffffffffffffffffffffffffffffffff1602179055508173ffffffffffffffffffffffffffffffffffffffff168173ffffffffffffffffffffffffffffffffffffffff167f8be0079c531659141344cd1fd0a4f28419497f9722a3daafe3b4186f6b6457e060405160405180910390a35050565b82805462000363906200068b565b90600052602060002090601f016020900481019282620003875760008555620003d3565b82601f10620003a257805160ff1916838001178555620003d3565b82800160010185558215620003d3579182015b82811115620003d2578251825591602001919060010190620003b5565b5b509050620003e291906200047e565b5090565b828054620003f4906200068b565b90600052602060002090601f0160209004810192826200041857600085556200046b565b82601f106200042b57805485556200046b565b828001600101855582156200046b57600052602060002091601f016020900482015b828111156200046a5782548255916001019190600101906200044d565b5b5090506200047a91906200047e565b5090565b5b80821115620004995760008160009055506001016200047f565b5090565b6000620004b4620004ae846200057d565b62000554565b905082815260208101848484011115620004cd57600080fd5b620004da84828562000655565b509392505050565b600082601f830112620004f457600080fd5b8151620005068482602086016200049d565b91505092915050565b6000602082840312156200052257600080fd5b600082015167ffffffffffffffff8111156200053d57600080fd5b6200054b84828501620004e2565b91505092915050565b60006200056062000573565b90506200056e8282620006c1565b919050565b6000604051905090565b600067ffffffffffffffff8211156200059b576200059a62000755565b5b620005a68262000784565b9050602081019050919050565b6000620005c0826200064b565b9150620005cd836200064b565b9250827fffffffffffffffffffffffffffffffffffffffffffffffffffffffffffffffff03821115620006055762000604620006f7565b5b828201905092915050565b60006200061d826200064b565b91506200062a836200064b565b92508282101562000640576200063f620006f7565b5b828203905092915050565b6000819050919050565b60005b838110156200067557808201518184015260208101905062000658565b8381111562000685576000848401525b50505050565b60006002820490506001821680620006a457607f821691505b60208210811415620006bb57620006ba62000726565b5b50919050565b620006cc8262000784565b810181811067ffffffffffffffff82111715620006ee57620006ed62000755565b5b80604052505050565b7f4e487b7100000000000000000000000000000000000000000000000000000000600052601160045260246000fd5b7f4e487b7100000000000000000000000000000000000000000000000000000000600052602260045260246000fd5b7f4e487b7100000000000000000000000000000000000000000000000000000000600052604160045260246000fd5b6000601f19601f8301169050919050565b60805160a051615da0620007bb600039600061364001526000610bac0152615da06000f3fe6080604052600436106102255760003560e01c80638a67456a11610123578063b88d4fde116100ab578063e19fb2f91161006f578063e19fb2f9146107c1578063e985e9c5146107ea578063f2fde38b14610827578063f3e3882114610850578063f759867a1461087b57610225565b8063b88d4fde146106f0578063c407321714610719578063c87b56dd14610730578063da1b9e081461076d578063e14ca3531461079657610225565b80639f181b5e116100f25780639f181b5e1461062c578063a0712d6814610657578063a22cb46514610673578063ad0907871461069c578063b1c9fe6e146106c557610225565b80638a67456a146105825780638da5cb5b146105ad5780638ef79e91146105d857806395d89b411461060157610225565b8063346de50a116101b15780636de9f32b116101755780636de9f32b1461049c57806370a08231146104c7578063715018a61461050457806377fc393e1461051b57806389b08f111461054457610225565b8063346de50a146103b757806342842e0e146103e2578063460b289c1461040b5780636352211e146104345780636817c76c1461047157610225565b806315f91c18116101f857806315f91c18146102f857806316efd94114610323578063215ab6131461033a57806323b872dd146103655780633123387b1461038e57610225565b806301ffc9a71461022a57806306fdde0314610267578063081812fc14610292578063095ea7b3146102cf575b600080fd5b34801561023657600080fd5b50610251600480360381019061024c919061408d565b610897565b60405161025e91906149a2565b60405180910390f35b34801561027357600080fd5b5061027c610979565b60405161028991906149d8565b60405180910390f35b34801561029e57600080fd5b506102b960048036038101906102b49190614149565b610a0b565b6040516102c6919061493b565b60405180910390f35b3480156102db57600080fd5b506102f660048036038101906102f19190613fa4565b610a90565b005b34801561030457600080fd5b5061030d610ba8565b60405161031a9190614e9a565b60405180910390f35b34801561032f57600080fd5b50610338610bd0565b005b34801561034657600080fd5b5061034f610ca6565b60405161035c9190614e9a565b60405180910390f35b34801561037157600080fd5b5061038c60048036038101906103879190613e4a565b610cac565b005b34801561039a57600080fd5b506103b560048036038101906103b091906140df565b610d0c565b005b3480156103c357600080fd5b506103cc610ef9565b6040516103d991906149a2565b60405180910390f35b3480156103ee57600080fd5b5061040960048036038101906104049190613e4a565b610f0c565b005b34801561041757600080fd5b50610432600480360381019061042d9190614149565b610f2c565b005b34801561044057600080fd5b5061045b60048036038101906104569190614149565b611008565b604051610468919061493b565b60405180910390f35b34801561047d57600080fd5b506104866110ba565b6040516104939190614e9a565b60405180910390f35b3480156104a857600080fd5b506104b16110c0565b6040516104be9190614e9a565b60405180910390f35b3480156104d357600080fd5b506104ee60048036038101906104e99190613de5565b6110c6565b6040516104fb9190614e9a565b60405180910390f35b34801561051057600080fd5b5061051961117e565b005b34801561052757600080fd5b50610542600480360381019061053d9190614021565b611206565b005b34801561055057600080fd5b5061056b60048036038101906105669190613de5565b6113ca565b604051610579929190614eb5565b60405180910390f35b34801561058e57600080fd5b506105976113fb565b6040516105a491906149a2565b60405180910390f35b3480156105b957600080fd5b506105c261140e565b6040516105cf919061493b565b60405180910390f35b3480156105e457600080fd5b506105ff60048036038101906105fa9190614108565b611438565b005b34801561060d57600080fd5b50610616611524565b60405161062391906149d8565b60405180910390f35b34801561063857600080fd5b506106416115b6565b60405161064e9190614e9a565b60405180910390f35b610671600480360381019061066c9190614149565b6115c0565b005b34801561067f57600080fd5b5061069a60048036038101906106959190613f68565b611a26565b005b3480156106a857600080fd5b506106c360048036038101906106be9190613fe0565b611a3c565b005b3480156106d157600080fd5b506106da611cbe565b6040516106e791906149bd565b60405180910390f35b3480156106fc57600080fd5b5061071760048036038101906107129190613e99565b611cd1565b005b34801561072557600080fd5b5061072e611d33565b005b34801561073c57600080fd5b5061075760048036038101906107529190614149565b611e31565b60405161076491906149d8565b60405180910390f35b34801561077957600080fd5b50610794600480360381019061078f9190614108565b611ed1565b005b3480156107a257600080fd5b506107ab611fbd565b6040516107b89190614e9a565b60405180910390f35b3480156107cd57600080fd5b506107e860048036038101906107e39190613f14565b611fde565b005b3480156107f657600080fd5b50610811600480360381019061080c9190613e0e565b612395565b60405161081e91906149a2565b60405180910390f35b34801561083357600080fd5b5061084e60048036038101906108499190613de5565b612429565b005b34801561085c57600080fd5b50610865612521565b6040516108729190614e9a565b60405180910390f35b61089560048036038101906108909190614149565b612527565b005b60007f80ac58cd000000000000000000000000000000000000000000000000000000007bffffffffffffffffffffffffffffffffffffffffffffffffffffffff1916827bffffffffffffffffffffffffffffffffffffffffffffffffffffffff1916148061096257507f5b5e139f000000000000000000000000000000000000000000000000000000007bffffffffffffffffffffffffffffffffffffffffffffffffffffffff1916827bffffffffffffffffffffffffffffffffffffffffffffffffffffffff1916145b806109725750610971826129d6565b5b9050919050565b60606000805461098890615222565b80601f01602080910402602001604051908101604052809291908181526020018280546109b490615222565b8015610a015780601f106109d657610100808354040283529160200191610a01565b820191906000526020600020905b8154815290600101906020018083116109e457829003601f168201915b5050505050905090565b6000610a1682612a40565b610a55576040517f08c379a0000000000000000000000000000000000000000000000000000000008152600401610a4c90614c3a565b60405180910390fd5b6004600083815260200190815260200160002060009054906101000a900473ffffffffffffffffffffffffffffffffffffffff169050919050565b6000610a9b82611008565b90508073ffffffffffffffffffffffffffffffffffffffff168373ffffffffffffffffffffffffffffffffffffffff161415610b0c576040517f08c379a0000000000000000000000000000000000000000000000000000000008152600401610b0390614d1a565b60405180910390fd5b8073ffffffffffffffffffffffffffffffffffffffff16610b2b612aac565b73ffffffffffffffffffffffffffffffffffffffff161480610b5a5750610b5981610b54612aac565b612395565b5b610b99576040517f08c379a0000000000000000000000000000000000000000000000000000000008152600401610b9090614b7a565b60405180910390fd5b610ba38383612ab4565b505050565b60007f0000000000000000000000000000000000000000000000000000000000000000905090565b610bd8612aac565b73ffffffffffffffffffffffffffffffffffffffff16610bf661140e565b73ffffffffffffffffffffffffffffffffffffffff1614610c4c576040517f08c379a0000000000000000000000000000000000000000000000000000000008152600401610c4390614c5a565b60405180910390fd5b60001515600f60019054906101000a900460ff1615151415610c88576001600f60016101000a81548160ff021916908315150217905550610ca4565b6000600f60016101000a81548160ff0219169083151502179055505b565b600e5481565b610cbd610cb7612aac565b82612b6d565b610cfc576040517f08c379a0000000000000000000000000000000000000000000000000000000008152600401610cf390614dba565b60405180910390fd5b610d07838383612c4b565b505050565b610d14612aac565b73ffffffffffffffffffffffffffffffffffffffff16610d3261140e565b73ffffffffffffffffffffffffffffffffffffffff1614610d88576040517f08c379a0000000000000000000000000000000000000000000000000000000008152600401610d7f90614c5a565b60405180910390fd5b60001515600f60019054906101000a900460ff16151514610dde576040517f08c379a0000000000000000000000000000000000000000000000000000000008152600401610dd590614a9a565b60405180910390fd5b600f60009054906101000a900460ff166002811115610e26577f4e487b7100000000000000000000000000000000000000000000000000000000600052602160045260246000fd5b60ff16816002811115610e62577f4e487b7100000000000000000000000000000000000000000000000000000000600052602160045260246000fd5b60ff161415610ea6576040517f08c379a0000000000000000000000000000000000000000000000000000000008152600401610e9d90614bda565b60405180910390fd5b80600f60006101000a81548160ff02191690836002811115610ef1577f4e487b7100000000000000000000000000000000000000000000000000000000600052602160045260246000fd5b021790555050565b600f60029054906101000a900460ff1681565b610f2783838360405180602001604052806000815250611cd1565b505050565b610f34612aac565b73ffffffffffffffffffffffffffffffffffffffff16610f5261140e565b73ffffffffffffffffffffffffffffffffffffffff1614610fa8576040517f08c379a0000000000000000000000000000000000000000000000000000000008152600401610f9f90614c5a565b60405180910390fd5b60001515600f60019054906101000a900460ff16151514610ffe576040517f08c379a0000000000000000000000000000000000000000000000000000000008152600401610ff590614a9a565b60405180910390fd5b80600b8190555050565b6000806002600084815260200190815260200160002060009054906101000a900473ffffffffffffffffffffffffffffffffffffffff169050600073ffffffffffffffffffffffffffffffffffffffff168173ffffffffffffffffffffffffffffffffffffffff1614156110b1576040517f08c379a00000000000000000000000000000000000000000000000000000000081526004016110a890614bba565b60405180910390fd5b80915050919050565b600b5481565b600c5481565b60008073ffffffffffffffffffffffffffffffffffffffff168273ffffffffffffffffffffffffffffffffffffffff161415611137576040517f08c379a000000000000000000000000000000000000000000000000000000000815260040161112e90614b9a565b60405180910390fd5b600360008373ffffffffffffffffffffffffffffffffffffffff1673ffffffffffffffffffffffffffffffffffffffff168152602001908152602001600020549050919050565b611186612aac565b73ffffffffffffffffffffffffffffffffffffffff166111a461140e565b73ffffffffffffffffffffffffffffffffffffffff16146111fa576040517f08c379a00000000000000000000000000000000000000000000000000000000081526004016111f190614c5a565b60405180910390fd5b6112046000612eb2565b565b61120e612aac565b73ffffffffffffffffffffffffffffffffffffffff1661122c61140e565b73ffffffffffffffffffffffffffffffffffffffff1614611282576040517f08c379a000000000000000000000000000000000000000000000000000000000815260040161127990614c5a565b60405180910390fd5b60001515600f60019054906101000a900460ff161515146112d8576040517f08c379a00000000000000000000000000000000000000000000000000000000081526004016112cf90614a9a565b60405180910390fd5b805182511461131c576040517f08c379a000000000000000000000000000000000000000000000000000000000815260040161131390614d7a565b60405180910390fd5b60005b82518110156113c5576113b2838281518110611364577f4e487b7100000000000000000000000000000000000000000000000000000000600052603260045260246000fd5b60200260200101518383815181106113a5577f4e487b7100000000000000000000000000000000000000000000000000000000600052603260045260246000fd5b6020026020010151612f78565b80806113bd90615285565b91505061131f565b505050565b60106020528060005260406000206000915090508060000154908060010160009054906101000a900460ff16905082565b600f60019054906101000a900460ff1681565b6000600660009054906101000a900473ffffffffffffffffffffffffffffffffffffffff16905090565b611440612aac565b73ffffffffffffffffffffffffffffffffffffffff1661145e61140e565b73ffffffffffffffffffffffffffffffffffffffff16146114b4576040517f08c379a00000000000000000000000000000000000000000000000000000000081526004016114ab90614c5a565b60405180910390fd5b60001515600f60019054906101000a900460ff1615151461150a576040517f08c379a000000000000000000000000000000000000000000000000000000000815260040161150190614a9a565b60405180910390fd5b80600a9080519060200190611520929190613ac8565b5050565b60606001805461153390615222565b80601f016020809104026020016040519081016040528092919081815260200182805461155f90615222565b80156115ac5780601f10611581576101008083540402835291602001916115ac565b820191906000526020600020905b81548152906001019060200180831161158f57829003601f168201915b5050505050905090565b6000600754905090565b80806115ca611fbd565b101561160b576040517f08c379a000000000000000000000000000000000000000000000000000000000815260040161160290614aba565b60405180910390fd5b813481600b5461161b91906150a7565b1461165b576040517f08c379a000000000000000000000000000000000000000000000000000000000815260040161165290614b1a565b60405180910390fd5b60001515600f60019054906101000a900460ff161515146116b1576040517f08c379a00000000000000000000000000000000000000000000000000000000081526004016116a890614a9a565b60405180910390fd5b6002808111156116ea577f4e487b7100000000000000000000000000000000000000000000000000000000600052602160045260246000fd5b600f60009054906101000a900460ff166002811115611732577f4e487b7100000000000000000000000000000000000000000000000000000000600052602160045260246000fd5b14611772576040517f08c379a000000000000000000000000000000000000000000000000000000000815260040161176990614d5a565b60405180910390fd5b600f60029054906101000a900460ff166117c1576040517f08c379a00000000000000000000000000000000000000000000000000000000081526004016117b890614c9a565b60405180910390fd5b60008311611804576040517f08c379a00000000000000000000000000000000000000000000000000000000081526004016117fb906149fa565b60405180910390fd5b600a83601060003373ffffffffffffffffffffffffffffffffffffffff1673ffffffffffffffffffffffffffffffffffffffff168152602001908152602001600020600001546118549190615020565b1115611895576040517f08c379a000000000000000000000000000000000000000000000000000000000815260040161188c90614dfa565b60405180910390fd5b600c54601460646118a69190615101565b116118e6576040517f08c379a00000000000000000000000000000000000000000000000000000000081526004016118dd90614dda565b60405180910390fd5b82600c546118f49190615020565b601460646119029190615101565b1015611943576040517f08c379a000000000000000000000000000000000000000000000000000000000815260040161193a90614d3a565b60405180910390fd5b600a831115611987576040517f08c379a000000000000000000000000000000000000000000000000000000000815260040161197e90614e5a565b60405180910390fd5b82601060003373ffffffffffffffffffffffffffffffffffffffff1673ffffffffffffffffffffffffffffffffffffffff16815260200190815260200160002060000160008282546119d99190615020565b9250508190555082600c60008282546119f29190615020565b9250508190555060005b83811015611a2057611a0d33613029565b8080611a1890615285565b9150506119fc565b50505050565b611a38611a31612aac565b8383613087565b5050565b611a44612aac565b73ffffffffffffffffffffffffffffffffffffffff16611a6261140e565b73ffffffffffffffffffffffffffffffffffffffff1614611ab8576040517f08c379a0000000000000000000000000000000000000000000000000000000008152600401611aaf90614c5a565b60405180910390fd5b60001515600f60019054906101000a900460ff16151514611b0e576040517f08c379a0000000000000000000000000000000000000000000000000000000008152600401611b0590614a9a565b60405180910390fd5b60146064611b1c9190615101565b600e5410611b5f576040517f08c379a0000000000000000000000000000000000000000000000000000000008152600401611b5690614c7a565b60405180910390fd5b60005b8151811015611cba57611bb4828281518110611ba7577f4e487b7100000000000000000000000000000000000000000000000000000000600052603260045260246000fd5b60200260200101516131f4565b15611bf4576040517f08c379a0000000000000000000000000000000000000000000000000000000008152600401611beb90614cba565b60405180910390fd5b600160106000848481518110611c33577f4e487b7100000000000000000000000000000000000000000000000000000000600052603260045260246000fd5b602002602001015173ffffffffffffffffffffffffffffffffffffffff1673ffffffffffffffffffffffffffffffffffffffff16815260200190815260200160002060010160006101000a81548160ff021916908315150217905550600e6000815480929190611ca290615285565b91905055508080611cb290615285565b915050611b62565b5050565b600f60009054906101000a900460ff1681565b611ce2611cdc612aac565b83612b6d565b611d21576040517f08c379a0000000000000000000000000000000000000000000000000000000008152600401611d1890614dba565b60405180910390fd5b611d2d8484848461324d565b50505050565b611d3b612aac565b73ffffffffffffffffffffffffffffffffffffffff16611d5961140e565b73ffffffffffffffffffffffffffffffffffffffff1614611daf576040517f08c379a0000000000000000000000000000000000000000000000000000000008152600401611da690614c5a565b60405180910390fd5b60001515600f60019054906101000a900460ff16151514611e05576040517f08c379a0000000000000000000000000000000000000000000000000000000008152600401611dfc90614a9a565b60405180910390fd5b600f60029054906101000a900460ff1615600f60026101000a81548160ff021916908315150217905550565b6060611e3c82612a40565b611e7b576040517f08c379a0000000000000000000000000000000000000000000000000000000008152600401611e7290614cfa565b60405180910390fd5b6000600a8054611e8a90615222565b905011611e9e57611e996132a9565b611eca565b600a611ea98361333b565b604051602001611eba9291906148ec565b6040516020818303038152906040525b9050919050565b611ed9612aac565b73ffffffffffffffffffffffffffffffffffffffff16611ef761140e565b73ffffffffffffffffffffffffffffffffffffffff1614611f4d576040517f08c379a0000000000000000000000000000000000000000000000000000000008152600401611f4490614c5a565b60405180910390fd5b60001515600f60019054906101000a900460ff16151514611fa3576040517f08c379a0000000000000000000000000000000000000000000000000000000008152600401611f9a90614a9a565b60405180910390fd5b8060099080519060200190611fb9929190613ac8565b5050565b6000611fc76115b6565b611fcf610ba8565b611fd99190615101565b905090565b611fe6612aac565b73ffffffffffffffffffffffffffffffffffffffff1661200461140e565b73ffffffffffffffffffffffffffffffffffffffff161461205a576040517f08c379a000000000000000000000000000000000000000000000000000000000815260040161205190614c5a565b60405180910390fd5b805180612065611fbd565b10156120a6576040517f08c379a000000000000000000000000000000000000000000000000000000000815260040161209d90614aba565b60405180910390fd5b60001515600f60019054906101000a900460ff161515146120fc576040517f08c379a00000000000000000000000000000000000000000000000000000000081526004016120f390614a9a565b60405180910390fd5b600f60029054906101000a900460ff1661214b576040517f08c379a000000000000000000000000000000000000000000000000000000000815260040161214290614c9a565b60405180910390fd5b600a601060008573ffffffffffffffffffffffffffffffffffffffff1673ffffffffffffffffffffffffffffffffffffffff16815260200190815260200160002060000154835161219c9190615020565b11156121dd576040517f08c379a00000000000000000000000000000000000000000000000000000000081526004016121d490614e7a565b60405180910390fd5b600d54601411612222576040517f08c379a000000000000000000000000000000000000000000000000000000000815260040161221990614cda565b60405180910390fd5b8151600d546122319190615020565b60141015612274576040517f08c379a000000000000000000000000000000000000000000000000000000000815260040161226b90614e3a565b60405180910390fd5b8151601060008573ffffffffffffffffffffffffffffffffffffffff1673ffffffffffffffffffffffffffffffffffffffff16815260200190815260200160002060000160008282546122c79190615020565b925050819055508151600d60008282546122e19190615020565b9250508190555060005b825181101561238f57600083828151811061232f577f4e487b7100000000000000000000000000000000000000000000000000000000600052603260045260246000fd5b602002602001015190506014811115612371577f4e487b7100000000000000000000000000000000000000000000000000000000600052600160045260246000fd5b61237b85826134e8565b50808061238790615285565b9150506122eb565b50505050565b6000600560008473ffffffffffffffffffffffffffffffffffffffff1673ffffffffffffffffffffffffffffffffffffffff16815260200190815260200160002060008373ffffffffffffffffffffffffffffffffffffffff1673ffffffffffffffffffffffffffffffffffffffff16815260200190815260200160002060009054906101000a900460ff16905092915050565b612431612aac565b73ffffffffffffffffffffffffffffffffffffffff1661244f61140e565b73ffffffffffffffffffffffffffffffffffffffff16146124a5576040517f08c379a000000000000000000000000000000000000000000000000000000000815260040161249c90614c5a565b60405180910390fd5b600073ffffffffffffffffffffffffffffffffffffffff168173ffffffffffffffffffffffffffffffffffffffff161415612515576040517f08c379a000000000000000000000000000000000000000000000000000000000815260040161250c90614a3a565b60405180910390fd5b61251e81612eb2565b50565b600d5481565b8080612531611fbd565b1015612572576040517f08c379a000000000000000000000000000000000000000000000000000000000815260040161256990614aba565b60405180910390fd5b813481600b5461258291906150a7565b146125c2576040517f08c379a00000000000000000000000000000000000000000000000000000000081526004016125b990614b1a565b60405180910390fd5b60001515600f60019054906101000a900460ff16151514612618576040517f08c379a000000000000000000000000000000000000000000000000000000000815260040161260f90614a9a565b60405180910390fd5b60016002811115612652577f4e487b7100000000000000000000000000000000000000000000000000000000600052602160045260246000fd5b600f60009054906101000a900460ff16600281111561269a577f4e487b7100000000000000000000000000000000000000000000000000000000600052602160045260246000fd5b146126da576040517f08c379a00000000000000000000000000000000000000000000000000000000081526004016126d190614c1a565b60405180910390fd5b600f60029054906101000a900460ff16612729576040517f08c379a000000000000000000000000000000000000000000000000000000000815260040161272090614c9a565b60405180910390fd5b6000831161276c576040517f08c379a0000000000000000000000000000000000000000000000000000000008152600401612763906149fa565b60405180910390fd5b600a83601060003373ffffffffffffffffffffffffffffffffffffffff1673ffffffffffffffffffffffffffffffffffffffff168152602001908152602001600020600001546127bc9190615020565b11156127fd576040517f08c379a00000000000000000000000000000000000000000000000000000000081526004016127f490614dfa565b60405180910390fd5b600c546014606461280e9190615101565b1161284e576040517f08c379a000000000000000000000000000000000000000000000000000000000815260040161284590614dda565b60405180910390fd5b82600c5461285c9190615020565b6014606461286a9190615101565b10156128ab576040517f08c379a00000000000000000000000000000000000000000000000000000000081526004016128a290614d3a565b60405180910390fd5b600a8311156128ef576040517f08c379a00000000000000000000000000000000000000000000000000000000081526004016128e690614e5a565b60405180910390fd5b6128f8336131f4565b612937576040517f08c379a000000000000000000000000000000000000000000000000000000000815260040161292e90614e1a565b60405180910390fd5b82601060003373ffffffffffffffffffffffffffffffffffffffff1673ffffffffffffffffffffffffffffffffffffffff16815260200190815260200160002060000160008282546129899190615020565b9250508190555082600c60008282546129a29190615020565b9250508190555060005b838110156129d0576129bd33613029565b80806129c890615285565b9150506129ac565b50505050565b60007f01ffc9a7000000000000000000000000000000000000000000000000000000007bffffffffffffffffffffffffffffffffffffffffffffffffffffffff1916827bffffffffffffffffffffffffffffffffffffffffffffffffffffffff1916149050919050565b60008073ffffffffffffffffffffffffffffffffffffffff166002600084815260200190815260200160002060009054906101000a900473ffffffffffffffffffffffffffffffffffffffff1673ffffffffffffffffffffffffffffffffffffffff1614159050919050565b600033905090565b816004600083815260200190815260200160002060006101000a81548173ffffffffffffffffffffffffffffffffffffffff021916908373ffffffffffffffffffffffffffffffffffffffff160217905550808273ffffffffffffffffffffffffffffffffffffffff16612b2783611008565b73ffffffffffffffffffffffffffffffffffffffff167f8c5be1e5ebec7d5bd14f71427d1e84f3dd0314c0f7b2291e5b200ac8c7c3b92560405160405180910390a45050565b6000612b7882612a40565b612bb7576040517f08c379a0000000000000000000000000000000000000000000000000000000008152600401612bae90614b5a565b60405180910390fd5b6000612bc283611008565b90508073ffffffffffffffffffffffffffffffffffffffff168473ffffffffffffffffffffffffffffffffffffffff161480612c3157508373ffffffffffffffffffffffffffffffffffffffff16612c1984610a0b565b73ffffffffffffffffffffffffffffffffffffffff16145b80612c425750612c418185612395565b5b91505092915050565b8273ffffffffffffffffffffffffffffffffffffffff16612c6b82611008565b73ffffffffffffffffffffffffffffffffffffffff1614612cc1576040517f08c379a0000000000000000000000000000000000000000000000000000000008152600401612cb890614a5a565b60405180910390fd5b600073ffffffffffffffffffffffffffffffffffffffff168273ffffffffffffffffffffffffffffffffffffffff161415612d31576040517f08c379a0000000000000000000000000000000000000000000000000000000008152600401612d2890614ada565b60405180910390fd5b612d3c838383613506565b612d47600082612ab4565b6001600360008573ffffffffffffffffffffffffffffffffffffffff1673ffffffffffffffffffffffffffffffffffffffff1681526020019081526020016000206000828254612d979190615101565b925050819055506001600360008473ffffffffffffffffffffffffffffffffffffffff1673ffffffffffffffffffffffffffffffffffffffff1681526020019081526020016000206000828254612dee9190615020565b92505081905550816002600083815260200190815260200160002060006101000a81548173ffffffffffffffffffffffffffffffffffffffff021916908373ffffffffffffffffffffffffffffffffffffffff160217905550808273ffffffffffffffffffffffffffffffffffffffff168473ffffffffffffffffffffffffffffffffffffffff167fddf252ad1be2c89b69c2b068fc378daa952ba7f163c4a11628f55a4df523b3ef60405160405180910390a4612ead83838361350b565b505050565b6000600660009054906101000a900473ffffffffffffffffffffffffffffffffffffffff16905081600660006101000a81548173ffffffffffffffffffffffffffffffffffffffff021916908373ffffffffffffffffffffffffffffffffffffffff1602179055508173ffffffffffffffffffffffffffffffffffffffff168173ffffffffffffffffffffffffffffffffffffffff167f8be0079c531659141344cd1fd0a4f28419497f9722a3daafe3b4186f6b6457e060405160405180910390a35050565b60008273ffffffffffffffffffffffffffffffffffffffff1682604051612f9e90614926565b60006040518083038185875af1925050503d8060008114612fdb576040519150601f19603f3d011682016040523d82523d6000602084013e612fe0565b606091505b5050905080613024576040517f08c379a000000000000000000000000000000000000000000000000000000000815260040161301b90614d9a565b60405180910390fd5b505050565b6000613033613510565b9050601481118015613046575060648111155b613079577f4e487b7100000000000000000000000000000000000000000000000000000000600052600160045260246000fd5b61308382826134e8565b5050565b8173ffffffffffffffffffffffffffffffffffffffff168373ffffffffffffffffffffffffffffffffffffffff1614156130f6576040517f08c379a00000000000000000000000000000000000000000000000000000000081526004016130ed90614afa565b60405180910390fd5b80600560008573ffffffffffffffffffffffffffffffffffffffff1673ffffffffffffffffffffffffffffffffffffffff16815260200190815260200160002060008473ffffffffffffffffffffffffffffffffffffffff1673ffffffffffffffffffffffffffffffffffffffff16815260200190815260200160002060006101000a81548160ff0219169083151502179055508173ffffffffffffffffffffffffffffffffffffffff168373ffffffffffffffffffffffffffffffffffffffff167f17307eab39ab6107e8899845ad3d59bd9653f200f220920489ca2b5937696c31836040516131e791906149a2565b60405180910390a3505050565b6000601060008373ffffffffffffffffffffffffffffffffffffffff1673ffffffffffffffffffffffffffffffffffffffff16815260200190815260200160002060010160009054906101000a900460ff169050919050565b613258848484612c4b565b61326484848484613672565b6132a3576040517f08c379a000000000000000000000000000000000000000000000000000000000815260040161329a90614a1a565b60405180910390fd5b50505050565b6060600980546132b890615222565b80601f01602080910402602001604051908101604052809291908181526020018280546132e490615222565b80156133315780601f1061330657610100808354040283529160200191613331565b820191906000526020600020905b81548152906001019060200180831161331457829003601f168201915b5050505050905090565b60606000821415613383576040518060400160405280600181526020017f300000000000000000000000000000000000000000000000000000000000000081525090506134e3565b600082905060005b600082146133b557808061339e90615285565b915050600a826133ae9190615076565b915061338b565b60008167ffffffffffffffff8111156133f7577f4e487b7100000000000000000000000000000000000000000000000000000000600052604160045260246000fd5b6040519080825280601f01601f1916602001820160405280156134295781602001600182028036833780820191505090505b5090505b600085146134dc576001826134429190615101565b9150600a85613451919061530e565b603061345d9190615020565b60f81b818381518110613499577f4e487b7100000000000000000000000000000000000000000000000000000000600052603260045260246000fd5b60200101907effffffffffffffffffffffffffffffffffffffffffffffffffffffffffffff1916908160001a905350600a856134d59190615076565b945061342d565b8093505050505b919050565b613502828260405180602001604052806000815250613809565b5050565b505050565b505050565b60008061351b6115b6565b613523610ba8565b61352d9190615101565b9050600081334144454260405160200161354b95949392919061488d565b6040516020818303038152906040528051906020012060001c61356e919061530e565b905060008060086000848152602001908152602001600020541415613595578190506135ac565b600860008381526020019081526020016000205490505b6000600860006001866135bf9190615101565b81526020019081526020016000205414156135fd576001836135e19190615101565b6008600084815260200190815260200160002081905550613635565b6008600060018561360e9190615101565b81526020019081526020016000205460086000848152602001908152602001600020819055505b61363d613864565b507f00000000000000000000000000000000000000000000000000000000000000008161366a9190615020565b935050505090565b60006136938473ffffffffffffffffffffffffffffffffffffffff166138cb565b156137fc578373ffffffffffffffffffffffffffffffffffffffff1663150b7a026136bc612aac565b8786866040518563ffffffff1660e01b81526004016136de9493929190614956565b602060405180830381600087803b1580156136f857600080fd5b505af192505050801561372957506040513d601f19601f8201168201806040525081019061372691906140b6565b60015b6137ac573d8060008114613759576040519150601f19603f3d011682016040523d82523d6000602084013e61375e565b606091505b506000815114156137a4576040517f08c379a000000000000000000000000000000000000000000000000000000000815260040161379b90614a1a565b60405180910390fd5b805181602001fd5b63150b7a0260e01b7bffffffffffffffffffffffffffffffffffffffffffffffffffffffff1916817bffffffffffffffffffffffffffffffffffffffffffffffffffffffff191614915050613801565b600190505b949350505050565b61381383836138ee565b6138206000848484613672565b61385f576040517f08c379a000000000000000000000000000000000000000000000000000000000815260040161385690614a1a565b60405180910390fd5b505050565b60008061386f611fbd565b116138af576040517f08c379a00000000000000000000000000000000000000000000000000000000081526004016138a690614b3a565b60405180910390fd5b600760008154809291906138c290615285565b91905055905090565b6000808273ffffffffffffffffffffffffffffffffffffffff163b119050919050565b600073ffffffffffffffffffffffffffffffffffffffff168273ffffffffffffffffffffffffffffffffffffffff16141561395e576040517f08c379a000000000000000000000000000000000000000000000000000000000815260040161395590614bfa565b60405180910390fd5b61396781612a40565b156139a7576040517f08c379a000000000000000000000000000000000000000000000000000000000815260040161399e90614a7a565b60405180910390fd5b6139b360008383613506565b6001600360008473ffffffffffffffffffffffffffffffffffffffff1673ffffffffffffffffffffffffffffffffffffffff1681526020019081526020016000206000828254613a039190615020565b92505081905550816002600083815260200190815260200160002060006101000a81548173ffffffffffffffffffffffffffffffffffffffff021916908373ffffffffffffffffffffffffffffffffffffffff160217905550808273ffffffffffffffffffffffffffffffffffffffff16600073ffffffffffffffffffffffffffffffffffffffff167fddf252ad1be2c89b69c2b068fc378daa952ba7f163c4a11628f55a4df523b3ef60405160405180910390a4613ac46000838361350b565b5050565b828054613ad490615222565b90600052602060002090601f016020900481019282613af65760008555613b3d565b82601f10613b0f57805160ff1916838001178555613b3d565b82800160010185558215613b3d579182015b82811115613b3c578251825591602001919060010190613b21565b5b509050613b4a9190613b4e565b5090565b5b80821115613b67576000816000905550600101613b4f565b5090565b6000613b7e613b7984614f03565b614ede565b90508083825260208201905082856020860282011115613b9d57600080fd5b60005b85811015613bcd5781613bb38882613cbf565b845260208401935060208301925050600181019050613ba0565b5050509392505050565b6000613bea613be584614f2f565b614ede565b90508083825260208201905082856020860282011115613c0957600080fd5b60005b85811015613c395781613c1f8882613dd0565b845260208401935060208301925050600181019050613c0c565b5050509392505050565b6000613c56613c5184614f5b565b614ede565b905082815260208101848484011115613c6e57600080fd5b613c798482856151e0565b509392505050565b6000613c94613c8f84614f8c565b614ede565b905082815260208101848484011115613cac57600080fd5b613cb78482856151e0565b509392505050565b600081359050613cce81615cfe565b92915050565b600082601f830112613ce557600080fd5b8135613cf5848260208601613b6b565b91505092915050565b600082601f830112613d0f57600080fd5b8135613d1f848260208601613bd7565b91505092915050565b600081359050613d3781615d15565b92915050565b600081359050613d4c81615d2c565b92915050565b600081519050613d6181615d2c565b92915050565b600082601f830112613d7857600080fd5b8135613d88848260208601613c43565b91505092915050565b600081359050613da081615d43565b92915050565b600082601f830112613db757600080fd5b8135613dc7848260208601613c81565b91505092915050565b600081359050613ddf81615d53565b92915050565b600060208284031215613df757600080fd5b6000613e0584828501613cbf565b91505092915050565b60008060408385031215613e2157600080fd5b6000613e2f85828601613cbf565b9250506020613e4085828601613cbf565b9150509250929050565b600080600060608486031215613e5f57600080fd5b6000613e6d86828701613cbf565b9350506020613e7e86828701613cbf565b9250506040613e8f86828701613dd0565b9150509250925092565b60008060008060808587031215613eaf57600080fd5b6000613ebd87828801613cbf565b9450506020613ece87828801613cbf565b9350506040613edf87828801613dd0565b925050606085013567ffffffffffffffff811115613efc57600080fd5b613f0887828801613d67565b91505092959194509250565b60008060408385031215613f2757600080fd5b6000613f3585828601613cbf565b925050602083013567ffffffffffffffff811115613f5257600080fd5b613f5e85828601613cfe565b9150509250929050565b60008060408385031215613f7b57600080fd5b6000613f8985828601613cbf565b9250506020613f9a85828601613d28565b9150509250929050565b60008060408385031215613fb757600080fd5b6000613fc585828601613cbf565b9250506020613fd685828601613dd0565b9150509250929050565b600060208284031215613ff257600080fd5b600082013567ffffffffffffffff81111561400c57600080fd5b61401884828501613cd4565b91505092915050565b6000806040838503121561403457600080fd5b600083013567ffffffffffffffff81111561404e57600080fd5b61405a85828601613cd4565b925050602083013567ffffffffffffffff81111561407757600080fd5b61408385828601613cfe565b9150509250929050565b60006020828403121561409f57600080fd5b60006140ad84828501613d3d565b91505092915050565b6000602082840312156140c857600080fd5b60006140d684828501613d52565b91505092915050565b6000602082840312156140f157600080fd5b60006140ff84828501613d91565b91505092915050565b60006020828403121561411a57600080fd5b600082013567ffffffffffffffff81111561413457600080fd5b61414084828501613da6565b91505092915050565b60006020828403121561415b57600080fd5b600061416984828501613dd0565b91505092915050565b61418361417e82615147565b6152e0565b82525050565b61419281615135565b82525050565b6141a96141a482615135565b6152ce565b82525050565b6141b881615159565b82525050565b60006141c982614fd2565b6141d38185614fe8565b93506141e38185602086016151ef565b6141ec8161542a565b840191505092915050565b614200816151ce565b82525050565b600061421182614fdd565b61421b8185615004565b935061422b8185602086016151ef565b6142348161542a565b840191505092915050565b600061424a82614fdd565b6142548185615015565b93506142648185602086016151ef565b80840191505092915050565b6000815461427d81615222565b6142878186615015565b945060018216600081146142a257600181146142b3576142e6565b60ff198316865281860193506142e6565b6142bc85614fbd565b60005b838110156142de578154818901526001820191506020810190506142bf565b838801955050505b50505092915050565b60006142fc601383615004565b915061430782615448565b602082019050919050565b600061431f603283615004565b915061432a82615471565b604082019050919050565b6000614342602683615004565b915061434d826154c0565b604082019050919050565b6000614365602583615004565b91506143708261550f565b604082019050919050565b6000614388601c83615004565b91506143938261555e565b602082019050919050565b60006143ab600f83615004565b91506143b682615587565b602082019050919050565b60006143ce602883615004565b91506143d9826155b0565b604082019050919050565b60006143f1602483615004565b91506143fc826155ff565b604082019050919050565b6000614414601983615004565b915061441f8261564e565b602082019050919050565b6000614437601f83615004565b915061444282615677565b602082019050919050565b600061445a601883615004565b9150614465826156a0565b602082019050919050565b600061447d602c83615004565b9150614488826156c9565b604082019050919050565b60006144a0603883615004565b91506144ab82615718565b604082019050919050565b60006144c3602a83615004565b91506144ce82615767565b604082019050919050565b60006144e6602983615004565b91506144f1826157b6565b604082019050919050565b6000614509601683615004565b915061451482615805565b602082019050919050565b600061452c602083615004565b91506145378261582e565b602082019050919050565b600061454f600b83615004565b915061455a82615857565b602082019050919050565b6000614572602c83615004565b915061457d82615880565b604082019050919050565b6000614595600583615015565b91506145a0826158cf565b600582019050919050565b60006145b8602083615004565b91506145c3826158f8565b602082019050919050565b60006145db603083615004565b91506145e682615921565b604082019050919050565b60006145fe601383615004565b915061460982615970565b602082019050919050565b6000614621602883615004565b915061462c82615999565b604082019050919050565b6000614644601883615004565b915061464f826159e8565b602082019050919050565b6000614667601f83615004565b915061467282615a11565b602082019050919050565b600061468a602183615004565b915061469582615a3a565b604082019050919050565b60006146ad601683615004565b91506146b882615a89565b602082019050919050565b60006146d0600f83615004565b91506146db82615ab2565b602082019050919050565b60006146f3600083614ff9565b91506146fe82615adb565b600082019050919050565b6000614716602283615004565b915061472182615ade565b604082019050919050565b6000614739601083615004565b915061474482615b2d565b602082019050919050565b600061475c603183615004565b915061476782615b56565b604082019050919050565b600061477f600883615004565b915061478a82615ba5565b602082019050919050565b60006147a2601683615004565b91506147ad82615bce565b602082019050919050565b60006147c5601983615004565b91506147d082615bf7565b602082019050919050565b60006147e8601f83615004565b91506147f382615c20565b602082019050919050565b600061480b602183615004565b915061481682615c49565b604082019050919050565b600061482e600183615015565b915061483982615c98565b600182019050919050565b6000614851601f83615004565b915061485c82615cc1565b602082019050919050565b614870816151c4565b82525050565b614887614882826151c4565b615304565b82525050565b60006148998288614198565b6014820191506148a98287614172565b6014820191506148b98286614876565b6020820191506148c98285614876565b6020820191506148d98284614876565b6020820191508190509695505050505050565b60006148f88285614270565b915061490382614821565b915061490f828461423f565b915061491a82614588565b91508190509392505050565b6000614931826146e6565b9150819050919050565b60006020820190506149506000830184614189565b92915050565b600060808201905061496b6000830187614189565b6149786020830186614189565b6149856040830185614867565b818103606083015261499781846141be565b905095945050505050565b60006020820190506149b760008301846141af565b92915050565b60006020820190506149d260008301846141f7565b92915050565b600060208201905081810360008301526149f28184614206565b905092915050565b60006020820190508181036000830152614a13816142ef565b9050919050565b60006020820190508181036000830152614a3381614312565b9050919050565b60006020820190508181036000830152614a5381614335565b9050919050565b60006020820190508181036000830152614a7381614358565b9050919050565b60006020820190508181036000830152614a938161437b565b9050919050565b60006020820190508181036000830152614ab38161439e565b9050919050565b60006020820190508181036000830152614ad3816143c1565b9050919050565b60006020820190508181036000830152614af3816143e4565b9050919050565b60006020820190508181036000830152614b1381614407565b9050919050565b60006020820190508181036000830152614b338161442a565b9050919050565b60006020820190508181036000830152614b538161444d565b9050919050565b60006020820190508181036000830152614b7381614470565b9050919050565b60006020820190508181036000830152614b9381614493565b9050919050565b60006020820190508181036000830152614bb3816144b6565b9050919050565b60006020820190508181036000830152614bd3816144d9565b9050919050565b60006020820190508181036000830152614bf3816144fc565b9050919050565b60006020820190508181036000830152614c138161451f565b9050919050565b60006020820190508181036000830152614c3381614542565b9050919050565b60006020820190508181036000830152614c5381614565565b9050919050565b60006020820190508181036000830152614c73816145ab565b9050919050565b60006020820190508181036000830152614c93816145ce565b9050919050565b60006020820190508181036000830152614cb3816145f1565b9050919050565b60006020820190508181036000830152614cd381614614565b9050919050565b60006020820190508181036000830152614cf381614637565b9050919050565b60006020820190508181036000830152614d138161465a565b9050919050565b60006020820190508181036000830152614d338161467d565b9050919050565b60006020820190508181036000830152614d53816146a0565b9050919050565b60006020820190508181036000830152614d73816146c3565b9050919050565b60006020820190508181036000830152614d9381614709565b9050919050565b60006020820190508181036000830152614db38161472c565b9050919050565b60006020820190508181036000830152614dd38161474f565b9050919050565b60006020820190508181036000830152614df381614772565b9050919050565b60006020820190508181036000830152614e1381614795565b9050919050565b60006020820190508181036000830152614e33816147b8565b9050919050565b60006020820190508181036000830152614e53816147db565b9050919050565b60006020820190508181036000830152614e73816147fe565b9050919050565b60006020820190508181036000830152614e9381614844565b9050919050565b6000602082019050614eaf6000830184614867565b92915050565b6000604082019050614eca6000830185614867565b614ed760208301846141af565b9392505050565b6000614ee8614ef9565b9050614ef48282615254565b919050565b6000604051905090565b600067ffffffffffffffff821115614f1e57614f1d6153fb565b5b602082029050602081019050919050565b600067ffffffffffffffff821115614f4a57614f496153fb565b5b602082029050602081019050919050565b600067ffffffffffffffff821115614f7657614f756153fb565b5b614f7f8261542a565b9050602081019050919050565b600067ffffffffffffffff821115614fa757614fa66153fb565b5b614fb08261542a565b9050602081019050919050565b60008190508160005260206000209050919050565b600081519050919050565b600081519050919050565b600082825260208201905092915050565b600081905092915050565b600082825260208201905092915050565b600081905092915050565b600061502b826151c4565b9150615036836151c4565b9250827fffffffffffffffffffffffffffffffffffffffffffffffffffffffffffffffff0382111561506b5761506a61533f565b5b828201905092915050565b6000615081826151c4565b915061508c836151c4565b92508261509c5761509b61536e565b5b828204905092915050565b60006150b2826151c4565b91506150bd836151c4565b9250817fffffffffffffffffffffffffffffffffffffffffffffffffffffffffffffffff04831182151516156150f6576150f561533f565b5b828202905092915050565b600061510c826151c4565b9150615117836151c4565b92508282101561512a5761512961533f565b5b828203905092915050565b6000615140826151a4565b9050919050565b6000615152826151a4565b9050919050565b60008115159050919050565b60007fffffffff0000000000000000000000000000000000000000000000000000000082169050919050565b600081905061519f82615cea565b919050565b600073ffffffffffffffffffffffffffffffffffffffff82169050919050565b6000819050919050565b60006151d982615191565b9050919050565b82818337600083830152505050565b60005b8381101561520d5780820151818401526020810190506151f2565b8381111561521c576000848401525b50505050565b6000600282049050600182168061523a57607f821691505b6020821081141561524e5761524d6153cc565b5b50919050565b61525d8261542a565b810181811067ffffffffffffffff8211171561527c5761527b6153fb565b5b80604052505050565b6000615290826151c4565b91507fffffffffffffffffffffffffffffffffffffffffffffffffffffffffffffffff8214156152c3576152c261533f565b5b600182019050919050565b60006152d9826152f2565b9050919050565b60006152eb826152f2565b9050919050565b60006152fd8261543b565b9050919050565b6000819050919050565b6000615319826151c4565b9150615324836151c4565b9250826153345761533361536e565b5b828206905092915050565b7f4e487b7100000000000000000000000000000000000000000000000000000000600052601160045260246000fd5b7f4e487b7100000000000000000000000000000000000000000000000000000000600052601260045260246000fd5b7f4e487b7100000000000000000000000000000000000000000000000000000000600052602160045260246000fd5b7f4e487b7100000000000000000000000000000000000000000000000000000000600052602260045260246000fd5b7f4e487b7100000000000000000000000000000000000000000000000000000000600052604160045260246000fd5b6000601f19601f8301169050919050565b60008160601b9050919050565b7f436f756e742069732030206f722062656c6f7700000000000000000000000000600082015250565b7f4552433732313a207472616e7366657220746f206e6f6e20455243373231526560008201527f63656976657220696d706c656d656e7465720000000000000000000000000000602082015250565b7f4f776e61626c653a206e6577206f776e657220697320746865207a65726f206160008201527f6464726573730000000000000000000000000000000000000000000000000000602082015250565b7f4552433732313a207472616e736665722066726f6d20696e636f72726563742060008201527f6f776e6572000000000000000000000000000000000000000000000000000000602082015250565b7f4552433732313a20746f6b656e20616c7265616479206d696e74656400000000600082015250565b7f436f6e7472616374207061757365640000000000000000000000000000000000600082015250565b7f526571756573746564206e756d626572206f6620746f6b656e73206e6f74206160008201527f7661696c61626c65000000000000000000000000000000000000000000000000602082015250565b7f4552433732313a207472616e7366657220746f20746865207a65726f2061646460008201527f7265737300000000000000000000000000000000000000000000000000000000602082015250565b7f4552433732313a20617070726f766520746f2063616c6c657200000000000000600082015250565b7f45746865722076616c75652073656e74206973206e6f7420636f727265637400600082015250565b7f4e6f206d6f726520746f6b656e7320617661696c61626c650000000000000000600082015250565b7f4552433732313a206f70657261746f7220717565727920666f72206e6f6e657860008201527f697374656e7420746f6b656e0000000000000000000000000000000000000000602082015250565b7f4552433732313a20617070726f76652063616c6c6572206973206e6f74206f7760008201527f6e6572206e6f7220617070726f76656420666f7220616c6c0000000000000000602082015250565b7f4552433732313a2062616c616e636520717565727920666f7220746865207a6560008201527f726f206164647265737300000000000000000000000000000000000000000000602082015250565b7f4552433732313a206f776e657220717565727920666f72206e6f6e657869737460008201527f656e7420746f6b656e0000000000000000000000000000000000000000000000602082015250565b7f43616e206f6e6c79206368616e67652070686173657300000000000000000000600082015250565b7f4552433732313a206d696e7420746f20746865207a65726f2061646472657373600082015250565b7f4e6f742070726573616c65000000000000000000000000000000000000000000600082015250565b7f4552433732313a20617070726f76656420717565727920666f72206e6f6e657860008201527f697374656e7420746f6b656e0000000000000000000000000000000000000000602082015250565b7f2e6a736f6e000000000000000000000000000000000000000000000000000000600082015250565b7f4f776e61626c653a2063616c6c6572206973206e6f7420746865206f776e6572600082015250565b7f43616e206e6f7420616464206d6f726520616464726573736573207468616e2060008201527f617669616c61626c6520746f6b65736e00000000000000000000000000000000602082015250565b7f4d696e74696e67206e6f7420656e61626c656400000000000000000000000000600082015250565b7f43616e206e6f742061646420612077616c6c657420746861742068617320626560008201527f656e206164646564000000000000000000000000000000000000000000000000602082015250565b7f526573657276656420746f6b656e7320736f6c64206f75740000000000000000600082015250565b7f43616e6e6f74207175657279206e6f6e2d6578697374656e7420746f6b656e00600082015250565b7f4552433732313a20617070726f76616c20746f2063757272656e74206f776e6560008201527f7200000000000000000000000000000000000000000000000000000000000000602082015250565b7f45786365656473206d6178696d756d20737570706c7900000000000000000000600082015250565b7f4e6f74207075626c69632073616c650000000000000000000000000000000000600082015250565b50565b7f50617965657320616e6420616d6f756e7473206c656e677468206d69736d617460008201527f6368000000000000000000000000000000000000000000000000000000000000602082015250565b7f5472616e73666572206661696c65642e00000000000000000000000000000000600082015250565b7f4552433732313a207472616e736665722063616c6c6572206973206e6f74206f60008201527f776e6572206e6f7220617070726f766564000000000000000000000000000000602082015250565b7f536f6c64206f7574000000000000000000000000000000000000000000000000600082015250565b7f45786365656473206d6178207065722077616c6c657400000000000000000000600082015250565b7f41646472657373206e6f7420696e207768697465206c69737400000000000000600082015250565b7f45786365656473207265736572766564206d6178696d756d20737570706c7900600082015250565b7f596f75206f6e6c792063616e206d696e742061206d6178696d756d206f66203160008201527f3000000000000000000000000000000000000000000000000000000000000000602082015250565b7f2f00000000000000000000000000000000000000000000000000000000000000600082015250565b7f45786365656473206e756d626572206f66206561726e656420546f6b656e7300600082015250565b60038110615cfb57615cfa61539d565b5b50565b615d0781615135565b8114615d1257600080fd5b50565b615d1e81615159565b8114615d2957600080fd5b50565b615d3581615165565b8114615d4057600080fd5b50565b60038110615d5057600080fd5b50565b615d5c816151c4565b8114615d6757600080fd5b5056fea26469706673582212203f89db14e92187f818a4ad27f68f7f56bd46b000453640e72a0df4e86e2eb99e64736f6c63430008040033",
  "linkReferences": {},
  "deployedLinkReferences": {}
}