{
  "_format": "hh-sol-artifact-1",
  "contractName": "UMGContract",
  "sourceName": "contracts/UMGContract.sol",
  "abi": [
    {
      "inputs": [],
      "stateMutability": "payable",
      "type": "constructor"
    },
    {
      "anonymous": false,
      "inputs": [
        {
          "indexed": true,
          "internalType": "address",
          "name": "owner",
          "type": "address"
        },
        {
          "indexed": true,
          "internalType": "address",
          "name": "approved",
          "type": "address"
        },
        {
          "indexed": true,
          "internalType": "uint256",
          "name": "tokenId",
          "type": "uint256"
        }
      ],
      "name": "Approval",
      "type": "event"
    },
    {
      "anonymous": false,
      "inputs": [
        {
          "indexed": true,
          "internalType": "address",
          "name": "owner",
          "type": "address"
        },
        {
          "indexed": true,
          "internalType": "address",
          "name": "operator",
          "type": "address"
        },
        {
          "indexed": false,
          "internalType": "bool",
          "name": "approved",
          "type": "bool"
        }
      ],
      "name": "ApprovalForAll",
      "type": "event"
    },
    {
      "anonymous": false,
      "inputs": [
        {
          "indexed": true,
          "internalType": "address",
          "name": "previousOwner",
          "type": "address"
        },
        {
          "indexed": true,
          "internalType": "address",
          "name": "newOwner",
          "type": "address"
        }
      ],
      "name": "OwnershipTransferred",
      "type": "event"
    },
    {
      "anonymous": false,
      "inputs": [
        {
          "indexed": true,
          "internalType": "address",
          "name": "from",
          "type": "address"
        },
        {
          "indexed": true,
          "internalType": "address",
          "name": "to",
          "type": "address"
        },
        {
          "indexed": true,
          "internalType": "uint256",
          "name": "tokenId",
          "type": "uint256"
        }
      ],
      "name": "Transfer",
      "type": "event"
    },
    {
      "inputs": [
        {
          "internalType": "address[]",
          "name": "_addedAddressesList",
          "type": "address[]"
        }
      ],
      "name": "addAddressesToWhiteList",
      "outputs": [],
      "stateMutability": "nonpayable",
      "type": "function"
    },
    {
      "inputs": [
        {
          "internalType": "uint256",
          "name": "_newPrice",
          "type": "uint256"
        }
      ],
      "name": "adjustMintPrice",
      "outputs": [],
      "stateMutability": "nonpayable",
      "type": "function"
    },
    {
      "inputs": [
        {
          "internalType": "address",
          "name": "to",
          "type": "address"
        },
        {
          "internalType": "uint256",
          "name": "tokenId",
          "type": "uint256"
        }
      ],
      "name": "approve",
      "outputs": [],
      "stateMutability": "nonpayable",
      "type": "function"
    },
    {
      "inputs": [],
      "name": "availableTokenCount",
      "outputs": [
        {
          "internalType": "uint256",
          "name": "",
          "type": "uint256"
        }
      ],
      "stateMutability": "view",
      "type": "function"
    },
    {
      "inputs": [
        {
          "internalType": "address",
          "name": "owner",
          "type": "address"
        }
      ],
      "name": "balanceOf",
      "outputs": [
        {
          "internalType": "uint256",
          "name": "",
          "type": "uint256"
        }
      ],
      "stateMutability": "view",
      "type": "function"
    },
    {
      "inputs": [],
      "name": "circuitBreaker",
      "outputs": [],
      "stateMutability": "nonpayable",
      "type": "function"
    },
    {
      "inputs": [
        {
          "internalType": "address",
          "name": "to",
          "type": "address"
        },
        {
          "internalType": "uint256[]",
          "name": "tokensId",
          "type": "uint256[]"
        }
      ],
      "name": "claimReservedTokens",
      "outputs": [],
      "stateMutability": "nonpayable",
      "type": "function"
    },
    {
      "inputs": [],
      "name": "contractPaused",
      "outputs": [
        {
          "internalType": "bool",
          "name": "",
          "type": "bool"
        }
      ],
      "stateMutability": "view",
      "type": "function"
    },
    {
      "inputs": [
        {
          "internalType": "address[]",
          "name": "payees_",
          "type": "address[]"
        },
        {
          "internalType": "uint256[]",
          "name": "amounts_",
          "type": "uint256[]"
        }
      ],
      "name": "disbursePayments",
      "outputs": [],
      "stateMutability": "nonpayable",
      "type": "function"
    },
    {
      "inputs": [
        {
          "internalType": "enum UMGContract.SalePhase",
          "name": "_phase",
          "type": "uint8"
        }
      ],
      "name": "enterPhase",
      "outputs": [],
      "stateMutability": "nonpayable",
      "type": "function"
    },
    {
      "inputs": [
        {
          "internalType": "uint256",
          "name": "tokenId",
          "type": "uint256"
        }
      ],
      "name": "getApproved",
      "outputs": [
        {
          "internalType": "address",
          "name": "",
          "type": "address"
        }
      ],
      "stateMutability": "view",
      "type": "function"
    },
    {
      "inputs": [
        {
          "internalType": "address",
          "name": "owner",
          "type": "address"
        },
        {
          "internalType": "address",
          "name": "operator",
          "type": "address"
        }
      ],
      "name": "isApprovedForAll",
      "outputs": [
        {
          "internalType": "bool",
          "name": "",
          "type": "bool"
        }
      ],
      "stateMutability": "view",
      "type": "function"
    },
    {
      "inputs": [],
      "name": "isMintEnabled",
      "outputs": [
        {
          "internalType": "bool",
          "name": "",
          "type": "bool"
        }
      ],
      "stateMutability": "view",
      "type": "function"
    },
    {
      "inputs": [],
      "name": "maxAvailableSupply",
      "outputs": [
        {
          "internalType": "uint256",
          "name": "",
          "type": "uint256"
        }
      ],
      "stateMutability": "view",
      "type": "function"
    },
    {
      "inputs": [
        {
          "internalType": "uint256",
          "name": "count",
          "type": "uint256"
        }
      ],
      "name": "mint",
      "outputs": [],
      "stateMutability": "payable",
      "type": "function"
    },
    {
      "inputs": [
        {
          "internalType": "uint256",
          "name": "count",
          "type": "uint256"
        }
      ],
      "name": "mintPresale",
      "outputs": [],
      "stateMutability": "payable",
      "type": "function"
    },
    {
      "inputs": [],
      "name": "mintPrice",
      "outputs": [
        {
          "internalType": "uint256",
          "name": "",
          "type": "uint256"
        }
      ],
      "stateMutability": "view",
      "type": "function"
    },
    {
      "inputs": [],
      "name": "name",
      "outputs": [
        {
          "internalType": "string",
          "name": "",
          "type": "string"
        }
      ],
      "stateMutability": "view",
      "type": "function"
    },
    {
      "inputs": [],
      "name": "owner",
      "outputs": [
        {
          "internalType": "address",
          "name": "",
          "type": "address"
        }
      ],
      "stateMutability": "view",
      "type": "function"
    },
    {
      "inputs": [
        {
          "internalType": "uint256",
          "name": "tokenId",
          "type": "uint256"
        }
      ],
      "name": "ownerOf",
      "outputs": [
        {
          "internalType": "address",
          "name": "",
          "type": "address"
        }
      ],
      "stateMutability": "view",
      "type": "function"
    },
    {
      "inputs": [],
      "name": "phase",
      "outputs": [
        {
          "internalType": "enum UMGContract.SalePhase",
          "name": "",
          "type": "uint8"
        }
      ],
      "stateMutability": "view",
      "type": "function"
    },
    {
      "inputs": [],
      "name": "renounceOwnership",
      "outputs": [],
      "stateMutability": "nonpayable",
      "type": "function"
    },
    {
      "inputs": [],
      "name": "reservedTokensMinted",
      "outputs": [
        {
          "internalType": "uint256",
          "name": "",
          "type": "uint256"
        }
      ],
      "stateMutability": "view",
      "type": "function"
    },
    {
      "inputs": [
        {
          "internalType": "address",
          "name": "from",
          "type": "address"
        },
        {
          "internalType": "address",
          "name": "to",
          "type": "address"
        },
        {
          "internalType": "uint256",
          "name": "tokenId",
          "type": "uint256"
        }
      ],
      "name": "safeTransferFrom",
      "outputs": [],
      "stateMutability": "nonpayable",
      "type": "function"
    },
    {
      "inputs": [
        {
          "internalType": "address",
          "name": "from",
          "type": "address"
        },
        {
          "internalType": "address",
          "name": "to",
          "type": "address"
        },
        {
          "internalType": "uint256",
          "name": "tokenId",
          "type": "uint256"
        },
        {
          "internalType": "bytes",
          "name": "_data",
          "type": "bytes"
        }
      ],
      "name": "safeTransferFrom",
      "outputs": [],
      "stateMutability": "nonpayable",
      "type": "function"
    },
    {
      "inputs": [
        {
          "internalType": "address",
          "name": "operator",
          "type": "address"
        },
        {
          "internalType": "bool",
          "name": "approved",
          "type": "bool"
        }
      ],
      "name": "setApprovalForAll",
      "outputs": [],
      "stateMutability": "nonpayable",
      "type": "function"
    },
    {
      "inputs": [
        {
          "internalType": "bytes4",
          "name": "interfaceId",
          "type": "bytes4"
        }
      ],
      "name": "supportsInterface",
      "outputs": [
        {
          "internalType": "bool",
          "name": "",
          "type": "bool"
        }
      ],
      "stateMutability": "view",
      "type": "function"
    },
    {
      "inputs": [],
      "name": "symbol",
      "outputs": [
        {
          "internalType": "string",
          "name": "",
          "type": "string"
        }
      ],
      "stateMutability": "view",
      "type": "function"
    },
    {
      "inputs": [],
      "name": "toggleIsMintEnabled",
      "outputs": [],
      "stateMutability": "nonpayable",
      "type": "function"
    },
    {
      "inputs": [],
      "name": "tokenCount",
      "outputs": [
        {
          "internalType": "uint256",
          "name": "",
          "type": "uint256"
        }
      ],
      "stateMutability": "view",
      "type": "function"
    },
    {
      "inputs": [
        {
          "internalType": "uint256",
          "name": "tokenId",
          "type": "uint256"
        }
      ],
      "name": "tokenURI",
      "outputs": [
        {
          "internalType": "string",
          "name": "",
          "type": "string"
        }
      ],
      "stateMutability": "view",
      "type": "function"
    },
    {
      "inputs": [],
      "name": "tokensMinted",
      "outputs": [
        {
          "internalType": "uint256",
          "name": "",
          "type": "uint256"
        }
      ],
      "stateMutability": "view",
      "type": "function"
    },
    {
      "inputs": [
        {
          "internalType": "address",
          "name": "from",
          "type": "address"
        },
        {
          "internalType": "address",
          "name": "to",
          "type": "address"
        },
        {
          "internalType": "uint256",
          "name": "tokenId",
          "type": "uint256"
        }
      ],
      "name": "transferFrom",
      "outputs": [],
      "stateMutability": "nonpayable",
      "type": "function"
    },
    {
      "inputs": [
        {
          "internalType": "address",
          "name": "newOwner",
          "type": "address"
        }
      ],
      "name": "transferOwnership",
      "outputs": [],
      "stateMutability": "nonpayable",
      "type": "function"
    },
    {
      "inputs": [
        {
          "internalType": "address",
          "name": "",
          "type": "address"
        }
      ],
      "name": "wallets",
      "outputs": [
        {
          "internalType": "uint256",
          "name": "_numberOfMintsByAddress",
          "type": "uint256"
        },
        {
          "internalType": "bool",
          "name": "_isInWhiteList",
          "type": "bool"
        }
      ],
      "stateMutability": "view",
      "type": "function"
    },
    {
      "inputs": [],
      "name": "whiteListCounter",
      "outputs": [
        {
          "internalType": "uint256",
          "name": "",
          "type": "uint256"
        }
      ],
      "stateMutability": "view",
      "type": "function"
    }
  ],
  "bytecode": "0x60c060405266b1a2bc2ec500006009556000600d60006101000a81548160ff021916908360028111156200005c577f4e487b7100000000000000000000000000000000000000000000000000000000600052602160045260246000fd5b02179055506000600d60016101000a81548160ff0219169083151502179055506000600d60026101000a81548160ff0219169083151502179055506064601481816040518060400160405280601781526020017f556e69636f726e204d6f746f726379636c652047616e670000000000000000008152506040518060400160405280600781526020017f554e49434f524e0000000000000000000000000000000000000000000000000081525081600090805190602001906200012192919062000260565b5080600190805190602001906200013a92919062000260565b5050506200015d620001516200019260201b60201c565b6200019a60201b60201c565b80826200016b91906200036d565b60808181525050505060018162000183919062000310565b60a08181525050505062000446565b600033905090565b6000600660009054906101000a900473ffffffffffffffffffffffffffffffffffffffff16905081600660006101000a81548173ffffffffffffffffffffffffffffffffffffffff021916908373ffffffffffffffffffffffffffffffffffffffff1602179055508173ffffffffffffffffffffffffffffffffffffffff168173ffffffffffffffffffffffffffffffffffffffff167f8be0079c531659141344cd1fd0a4f28419497f9722a3daafe3b4186f6b6457e060405160405180910390a35050565b8280546200026e90620003b2565b90600052602060002090601f016020900481019282620002925760008555620002de565b82601f10620002ad57805160ff1916838001178555620002de565b82800160010185558215620002de579182015b82811115620002dd578251825591602001919060010190620002c0565b5b509050620002ed9190620002f1565b5090565b5b808211156200030c576000816000905550600101620002f2565b5090565b60006200031d82620003a8565b91506200032a83620003a8565b9250827fffffffffffffffffffffffffffffffffffffffffffffffffffffffffffffffff03821115620003625762000361620003e8565b5b828201905092915050565b60006200037a82620003a8565b91506200038783620003a8565b9250828210156200039d576200039c620003e8565b5b828203905092915050565b6000819050919050565b60006002820490506001821680620003cb57607f821691505b60208210811415620003e257620003e162000417565b5b50919050565b7f4e487b7100000000000000000000000000000000000000000000000000000000600052601160045260246000fd5b7f4e487b7100000000000000000000000000000000000000000000000000000000600052602260045260246000fd5b60805160a0516158536200046c600039600061338c01526000610b4401526158536000f3fe60806040526004361061020f5760003560e01c806389b08f1111610118578063b88d4fde116100a0578063e19fb2f91161006f578063e19fb2f914610759578063e985e9c514610782578063f2fde38b146107bf578063f3e38821146107e8578063f759867a146108135761020f565b8063b88d4fde146106b1578063c4073217146106da578063c87b56dd146106f1578063e14ca3531461072e5761020f565b80639f181b5e116100e75780639f181b5e146105ed578063a0712d6814610618578063a22cb46514610634578063ad0907871461065d578063b1c9fe6e146106865761020f565b806389b08f111461052e5780638a67456a1461056c5780638da5cb5b1461059757806395d89b41146105c25761020f565b8063346de50a1161019b5780636817c76c1161016a5780636817c76c1461045b5780636de9f32b1461048657806370a08231146104b1578063715018a6146104ee57806377fc393e146105055761020f565b8063346de50a146103a157806342842e0e146103cc578063460b289c146103f55780636352211e1461041e5761020f565b806315f91c18116101e257806315f91c18146102e257806316efd9411461030d578063215ab6131461032457806323b872dd1461034f5780633123387b146103785761020f565b806301ffc9a71461021457806306fdde0314610251578063081812fc1461027c578063095ea7b3146102b9575b600080fd5b34801561022057600080fd5b5061023b60048036038101906102369190613cce565b61082f565b60405161024891906144c7565b60405180910390f35b34801561025d57600080fd5b50610266610911565b60405161027391906144fd565b60405180910390f35b34801561028857600080fd5b506102a3600480360381019061029e9190613d49565b6109a3565b6040516102b09190614460565b60405180910390f35b3480156102c557600080fd5b506102e060048036038101906102db9190613be5565b610a28565b005b3480156102ee57600080fd5b506102f7610b40565b60405161030491906149bf565b60405180910390f35b34801561031957600080fd5b50610322610b68565b005b34801561033057600080fd5b50610339610c3e565b60405161034691906149bf565b60405180910390f35b34801561035b57600080fd5b5061037660048036038101906103719190613a8b565b610c44565b005b34801561038457600080fd5b5061039f600480360381019061039a9190613d20565b610ca4565b005b3480156103ad57600080fd5b506103b6610e91565b6040516103c391906144c7565b60405180910390f35b3480156103d857600080fd5b506103f360048036038101906103ee9190613a8b565b610ea4565b005b34801561040157600080fd5b5061041c60048036038101906104179190613d49565b610ec4565b005b34801561042a57600080fd5b5061044560048036038101906104409190613d49565b610fa0565b6040516104529190614460565b60405180910390f35b34801561046757600080fd5b50610470611052565b60405161047d91906149bf565b60405180910390f35b34801561049257600080fd5b5061049b611058565b6040516104a891906149bf565b60405180910390f35b3480156104bd57600080fd5b506104d860048036038101906104d39190613a26565b61105e565b6040516104e591906149bf565b60405180910390f35b3480156104fa57600080fd5b50610503611116565b005b34801561051157600080fd5b5061052c60048036038101906105279190613c62565b61119e565b005b34801561053a57600080fd5b5061055560048036038101906105509190613a26565b611362565b6040516105639291906149da565b60405180910390f35b34801561057857600080fd5b50610581611393565b60405161058e91906144c7565b60405180910390f35b3480156105a357600080fd5b506105ac6113a6565b6040516105b99190614460565b60405180910390f35b3480156105ce57600080fd5b506105d76113d0565b6040516105e491906144fd565b60405180910390f35b3480156105f957600080fd5b50610602611462565b60405161060f91906149bf565b60405180910390f35b610632600480360381019061062d9190613d49565b61146c565b005b34801561064057600080fd5b5061065b60048036038101906106569190613ba9565b6118d2565b005b34801561066957600080fd5b50610684600480360381019061067f9190613c21565b6118e8565b005b34801561069257600080fd5b5061069b611b6a565b6040516106a891906144e2565b60405180910390f35b3480156106bd57600080fd5b506106d860048036038101906106d39190613ada565b611b7d565b005b3480156106e657600080fd5b506106ef611bdf565b005b3480156106fd57600080fd5b5061071860048036038101906107139190613d49565b611cdd565b60405161072591906144fd565b60405180910390f35b34801561073a57600080fd5b50610743611d84565b60405161075091906149bf565b60405180910390f35b34801561076557600080fd5b50610780600480360381019061077b9190613b55565b611da5565b005b34801561078e57600080fd5b506107a960048036038101906107a49190613a4f565b61215c565b6040516107b691906144c7565b60405180910390f35b3480156107cb57600080fd5b506107e660048036038101906107e19190613a26565b6121f0565b005b3480156107f457600080fd5b506107fd6122e8565b60405161080a91906149bf565b60405180910390f35b61082d60048036038101906108289190613d49565b6122ee565b005b60007f80ac58cd000000000000000000000000000000000000000000000000000000007bffffffffffffffffffffffffffffffffffffffffffffffffffffffff1916827bffffffffffffffffffffffffffffffffffffffffffffffffffffffff191614806108fa57507f5b5e139f000000000000000000000000000000000000000000000000000000007bffffffffffffffffffffffffffffffffffffffffffffffffffffffff1916827bffffffffffffffffffffffffffffffffffffffffffffffffffffffff1916145b8061090a57506109098261279d565b5b9050919050565b60606000805461092090614d01565b80601f016020809104026020016040519081016040528092919081815260200182805461094c90614d01565b80156109995780601f1061096e57610100808354040283529160200191610999565b820191906000526020600020905b81548152906001019060200180831161097c57829003601f168201915b5050505050905090565b60006109ae82612807565b6109ed576040517f08c379a00000000000000000000000000000000000000000000000000000000081526004016109e49061475f565b60405180910390fd5b6004600083815260200190815260200160002060009054906101000a900473ffffffffffffffffffffffffffffffffffffffff169050919050565b6000610a3382610fa0565b90508073ffffffffffffffffffffffffffffffffffffffff168373ffffffffffffffffffffffffffffffffffffffff161415610aa4576040517f08c379a0000000000000000000000000000000000000000000000000000000008152600401610a9b9061483f565b60405180910390fd5b8073ffffffffffffffffffffffffffffffffffffffff16610ac3612873565b73ffffffffffffffffffffffffffffffffffffffff161480610af25750610af181610aec612873565b61215c565b5b610b31576040517f08c379a0000000000000000000000000000000000000000000000000000000008152600401610b289061469f565b60405180910390fd5b610b3b838361287b565b505050565b60007f0000000000000000000000000000000000000000000000000000000000000000905090565b610b70612873565b73ffffffffffffffffffffffffffffffffffffffff16610b8e6113a6565b73ffffffffffffffffffffffffffffffffffffffff1614610be4576040517f08c379a0000000000000000000000000000000000000000000000000000000008152600401610bdb9061477f565b60405180910390fd5b60001515600d60019054906101000a900460ff1615151415610c20576001600d60016101000a81548160ff021916908315150217905550610c3c565b6000600d60016101000a81548160ff0219169083151502179055505b565b600c5481565b610c55610c4f612873565b82612934565b610c94576040517f08c379a0000000000000000000000000000000000000000000000000000000008152600401610c8b906148df565b60405180910390fd5b610c9f838383612a12565b505050565b610cac612873565b73ffffffffffffffffffffffffffffffffffffffff16610cca6113a6565b73ffffffffffffffffffffffffffffffffffffffff1614610d20576040517f08c379a0000000000000000000000000000000000000000000000000000000008152600401610d179061477f565b60405180910390fd5b60001515600d60019054906101000a900460ff16151514610d76576040517f08c379a0000000000000000000000000000000000000000000000000000000008152600401610d6d906145bf565b60405180910390fd5b600d60009054906101000a900460ff166002811115610dbe577f4e487b7100000000000000000000000000000000000000000000000000000000600052602160045260246000fd5b60ff16816002811115610dfa577f4e487b7100000000000000000000000000000000000000000000000000000000600052602160045260246000fd5b60ff161415610e3e576040517f08c379a0000000000000000000000000000000000000000000000000000000008152600401610e35906146ff565b60405180910390fd5b80600d60006101000a81548160ff02191690836002811115610e89577f4e487b7100000000000000000000000000000000000000000000000000000000600052602160045260246000fd5b021790555050565b600d60029054906101000a900460ff1681565b610ebf83838360405180602001604052806000815250611b7d565b505050565b610ecc612873565b73ffffffffffffffffffffffffffffffffffffffff16610eea6113a6565b73ffffffffffffffffffffffffffffffffffffffff1614610f40576040517f08c379a0000000000000000000000000000000000000000000000000000000008152600401610f379061477f565b60405180910390fd5b60001515600d60019054906101000a900460ff16151514610f96576040517f08c379a0000000000000000000000000000000000000000000000000000000008152600401610f8d906145bf565b60405180910390fd5b8060098190555050565b6000806002600084815260200190815260200160002060009054906101000a900473ffffffffffffffffffffffffffffffffffffffff169050600073ffffffffffffffffffffffffffffffffffffffff168173ffffffffffffffffffffffffffffffffffffffff161415611049576040517f08c379a0000000000000000000000000000000000000000000000000000000008152600401611040906146df565b60405180910390fd5b80915050919050565b60095481565b600a5481565b60008073ffffffffffffffffffffffffffffffffffffffff168273ffffffffffffffffffffffffffffffffffffffff1614156110cf576040517f08c379a00000000000000000000000000000000000000000000000000000000081526004016110c6906146bf565b60405180910390fd5b600360008373ffffffffffffffffffffffffffffffffffffffff1673ffffffffffffffffffffffffffffffffffffffff168152602001908152602001600020549050919050565b61111e612873565b73ffffffffffffffffffffffffffffffffffffffff1661113c6113a6565b73ffffffffffffffffffffffffffffffffffffffff1614611192576040517f08c379a00000000000000000000000000000000000000000000000000000000081526004016111899061477f565b60405180910390fd5b61119c6000612c79565b565b6111a6612873565b73ffffffffffffffffffffffffffffffffffffffff166111c46113a6565b73ffffffffffffffffffffffffffffffffffffffff161461121a576040517f08c379a00000000000000000000000000000000000000000000000000000000081526004016112119061477f565b60405180910390fd5b60001515600d60019054906101000a900460ff16151514611270576040517f08c379a0000000000000000000000000000000000000000000000000000000008152600401611267906145bf565b60405180910390fd5b80518251146112b4576040517f08c379a00000000000000000000000000000000000000000000000000000000081526004016112ab9061489f565b60405180910390fd5b60005b825181101561135d5761134a8382815181106112fc577f4e487b7100000000000000000000000000000000000000000000000000000000600052603260045260246000fd5b602002602001015183838151811061133d577f4e487b7100000000000000000000000000000000000000000000000000000000600052603260045260246000fd5b6020026020010151612d3f565b808061135590614d64565b9150506112b7565b505050565b600e6020528060005260406000206000915090508060000154908060010160009054906101000a900460ff16905082565b600d60019054906101000a900460ff1681565b6000600660009054906101000a900473ffffffffffffffffffffffffffffffffffffffff16905090565b6060600180546113df90614d01565b80601f016020809104026020016040519081016040528092919081815260200182805461140b90614d01565b80156114585780601f1061142d57610100808354040283529160200191611458565b820191906000526020600020905b81548152906001019060200180831161143b57829003601f168201915b5050505050905090565b6000600754905090565b8080611476611d84565b10156114b7576040517f08c379a00000000000000000000000000000000000000000000000000000000081526004016114ae906145df565b60405180910390fd5b8134816009546114c79190614b86565b14611507576040517f08c379a00000000000000000000000000000000000000000000000000000000081526004016114fe9061463f565b60405180910390fd5b60001515600d60019054906101000a900460ff1615151461155d576040517f08c379a0000000000000000000000000000000000000000000000000000000008152600401611554906145bf565b60405180910390fd5b600280811115611596577f4e487b7100000000000000000000000000000000000000000000000000000000600052602160045260246000fd5b600d60009054906101000a900460ff1660028111156115de577f4e487b7100000000000000000000000000000000000000000000000000000000600052602160045260246000fd5b1461161e576040517f08c379a00000000000000000000000000000000000000000000000000000000081526004016116159061487f565b60405180910390fd5b600d60029054906101000a900460ff1661166d576040517f08c379a0000000000000000000000000000000000000000000000000000000008152600401611664906147bf565b60405180910390fd5b600083116116b0576040517f08c379a00000000000000000000000000000000000000000000000000000000081526004016116a79061451f565b60405180910390fd5b600a83600e60003373ffffffffffffffffffffffffffffffffffffffff1673ffffffffffffffffffffffffffffffffffffffff168152602001908152602001600020600001546117009190614aff565b1115611741576040517f08c379a00000000000000000000000000000000000000000000000000000000081526004016117389061491f565b60405180910390fd5b600a54601460646117529190614be0565b11611792576040517f08c379a0000000000000000000000000000000000000000000000000000000008152600401611789906148ff565b60405180910390fd5b82600a546117a09190614aff565b601460646117ae9190614be0565b10156117ef576040517f08c379a00000000000000000000000000000000000000000000000000000000081526004016117e69061485f565b60405180910390fd5b600a831115611833576040517f08c379a000000000000000000000000000000000000000000000000000000000815260040161182a9061497f565b60405180910390fd5b82600e60003373ffffffffffffffffffffffffffffffffffffffff1673ffffffffffffffffffffffffffffffffffffffff16815260200190815260200160002060000160008282546118859190614aff565b9250508190555082600a600082825461189e9190614aff565b9250508190555060005b838110156118cc576118b933612df0565b80806118c490614d64565b9150506118a8565b50505050565b6118e46118dd612873565b8383612e4e565b5050565b6118f0612873565b73ffffffffffffffffffffffffffffffffffffffff1661190e6113a6565b73ffffffffffffffffffffffffffffffffffffffff1614611964576040517f08c379a000000000000000000000000000000000000000000000000000000000815260040161195b9061477f565b60405180910390fd5b60001515600d60019054906101000a900460ff161515146119ba576040517f08c379a00000000000000000000000000000000000000000000000000000000081526004016119b1906145bf565b60405180910390fd5b601460646119c89190614be0565b600c5410611a0b576040517f08c379a0000000000000000000000000000000000000000000000000000000008152600401611a029061479f565b60405180910390fd5b60005b8151811015611b6657611a60828281518110611a53577f4e487b7100000000000000000000000000000000000000000000000000000000600052603260045260246000fd5b6020026020010151612fbb565b15611aa0576040517f08c379a0000000000000000000000000000000000000000000000000000000008152600401611a97906147ff565b60405180910390fd5b6001600e6000848481518110611adf577f4e487b7100000000000000000000000000000000000000000000000000000000600052603260045260246000fd5b602002602001015173ffffffffffffffffffffffffffffffffffffffff1673ffffffffffffffffffffffffffffffffffffffff16815260200190815260200160002060010160006101000a81548160ff021916908315150217905550600c6000815480929190611b4e90614d64565b91905055508080611b5e90614d64565b915050611a0e565b5050565b600d60009054906101000a900460ff1681565b611b8e611b88612873565b83612934565b611bcd576040517f08c379a0000000000000000000000000000000000000000000000000000000008152600401611bc4906148df565b60405180910390fd5b611bd984848484613014565b50505050565b611be7612873565b73ffffffffffffffffffffffffffffffffffffffff16611c056113a6565b73ffffffffffffffffffffffffffffffffffffffff1614611c5b576040517f08c379a0000000000000000000000000000000000000000000000000000000008152600401611c529061477f565b60405180910390fd5b60001515600d60019054906101000a900460ff16151514611cb1576040517f08c379a0000000000000000000000000000000000000000000000000000000008152600401611ca8906145bf565b60405180910390fd5b600d60029054906101000a900460ff1615600d60026101000a81548160ff021916908315150217905550565b6060611ce882612807565b611d27576040517f08c379a0000000000000000000000000000000000000000000000000000000008152600401611d1e906147df565b60405180910390fd5b6000611d31613070565b90506000815111611d515760405180602001604052806000815250611d7c565b80611d5b84613087565b604051602001611d6c929190614427565b6040516020818303038152906040525b915050919050565b6000611d8e611462565b611d96610b40565b611da09190614be0565b905090565b611dad612873565b73ffffffffffffffffffffffffffffffffffffffff16611dcb6113a6565b73ffffffffffffffffffffffffffffffffffffffff1614611e21576040517f08c379a0000000000000000000000000000000000000000000000000000000008152600401611e189061477f565b60405180910390fd5b805180611e2c611d84565b1015611e6d576040517f08c379a0000000000000000000000000000000000000000000000000000000008152600401611e64906145df565b60405180910390fd5b60001515600d60019054906101000a900460ff16151514611ec3576040517f08c379a0000000000000000000000000000000000000000000000000000000008152600401611eba906145bf565b60405180910390fd5b600d60029054906101000a900460ff16611f12576040517f08c379a0000000000000000000000000000000000000000000000000000000008152600401611f09906147bf565b60405180910390fd5b600a600e60008573ffffffffffffffffffffffffffffffffffffffff1673ffffffffffffffffffffffffffffffffffffffff168152602001908152602001600020600001548351611f639190614aff565b1115611fa4576040517f08c379a0000000000000000000000000000000000000000000000000000000008152600401611f9b9061499f565b60405180910390fd5b600b54601411611fe9576040517f08c379a0000000000000000000000000000000000000000000000000000000008152600401611fe09061481f565b60405180910390fd5b8151600b54611ff89190614aff565b6014101561203b576040517f08c379a00000000000000000000000000000000000000000000000000000000081526004016120329061495f565b60405180910390fd5b8151600e60008573ffffffffffffffffffffffffffffffffffffffff1673ffffffffffffffffffffffffffffffffffffffff168152602001908152602001600020600001600082825461208e9190614aff565b925050819055508151600b60008282546120a89190614aff565b9250508190555060005b82518110156121565760008382815181106120f6577f4e487b7100000000000000000000000000000000000000000000000000000000600052603260045260246000fd5b602002602001015190506014811115612138577f4e487b7100000000000000000000000000000000000000000000000000000000600052600160045260246000fd5b6121428582613234565b50808061214e90614d64565b9150506120b2565b50505050565b6000600560008473ffffffffffffffffffffffffffffffffffffffff1673ffffffffffffffffffffffffffffffffffffffff16815260200190815260200160002060008373ffffffffffffffffffffffffffffffffffffffff1673ffffffffffffffffffffffffffffffffffffffff16815260200190815260200160002060009054906101000a900460ff16905092915050565b6121f8612873565b73ffffffffffffffffffffffffffffffffffffffff166122166113a6565b73ffffffffffffffffffffffffffffffffffffffff161461226c576040517f08c379a00000000000000000000000000000000000000000000000000000000081526004016122639061477f565b60405180910390fd5b600073ffffffffffffffffffffffffffffffffffffffff168173ffffffffffffffffffffffffffffffffffffffff1614156122dc576040517f08c379a00000000000000000000000000000000000000000000000000000000081526004016122d39061455f565b60405180910390fd5b6122e581612c79565b50565b600b5481565b80806122f8611d84565b1015612339576040517f08c379a0000000000000000000000000000000000000000000000000000000008152600401612330906145df565b60405180910390fd5b8134816009546123499190614b86565b14612389576040517f08c379a00000000000000000000000000000000000000000000000000000000081526004016123809061463f565b60405180910390fd5b60001515600d60019054906101000a900460ff161515146123df576040517f08c379a00000000000000000000000000000000000000000000000000000000081526004016123d6906145bf565b60405180910390fd5b60016002811115612419577f4e487b7100000000000000000000000000000000000000000000000000000000600052602160045260246000fd5b600d60009054906101000a900460ff166002811115612461577f4e487b7100000000000000000000000000000000000000000000000000000000600052602160045260246000fd5b146124a1576040517f08c379a00000000000000000000000000000000000000000000000000000000081526004016124989061473f565b60405180910390fd5b600d60029054906101000a900460ff166124f0576040517f08c379a00000000000000000000000000000000000000000000000000000000081526004016124e7906147bf565b60405180910390fd5b60008311612533576040517f08c379a000000000000000000000000000000000000000000000000000000000815260040161252a9061451f565b60405180910390fd5b600a83600e60003373ffffffffffffffffffffffffffffffffffffffff1673ffffffffffffffffffffffffffffffffffffffff168152602001908152602001600020600001546125839190614aff565b11156125c4576040517f08c379a00000000000000000000000000000000000000000000000000000000081526004016125bb9061491f565b60405180910390fd5b600a54601460646125d59190614be0565b11612615576040517f08c379a000000000000000000000000000000000000000000000000000000000815260040161260c906148ff565b60405180910390fd5b82600a546126239190614aff565b601460646126319190614be0565b1015612672576040517f08c379a00000000000000000000000000000000000000000000000000000000081526004016126699061485f565b60405180910390fd5b600a8311156126b6576040517f08c379a00000000000000000000000000000000000000000000000000000000081526004016126ad9061497f565b60405180910390fd5b6126bf33612fbb565b6126fe576040517f08c379a00000000000000000000000000000000000000000000000000000000081526004016126f59061493f565b60405180910390fd5b82600e60003373ffffffffffffffffffffffffffffffffffffffff1673ffffffffffffffffffffffffffffffffffffffff16815260200190815260200160002060000160008282546127509190614aff565b9250508190555082600a60008282546127699190614aff565b9250508190555060005b838110156127975761278433612df0565b808061278f90614d64565b915050612773565b50505050565b60007f01ffc9a7000000000000000000000000000000000000000000000000000000007bffffffffffffffffffffffffffffffffffffffffffffffffffffffff1916827bffffffffffffffffffffffffffffffffffffffffffffffffffffffff1916149050919050565b60008073ffffffffffffffffffffffffffffffffffffffff166002600084815260200190815260200160002060009054906101000a900473ffffffffffffffffffffffffffffffffffffffff1673ffffffffffffffffffffffffffffffffffffffff1614159050919050565b600033905090565b816004600083815260200190815260200160002060006101000a81548173ffffffffffffffffffffffffffffffffffffffff021916908373ffffffffffffffffffffffffffffffffffffffff160217905550808273ffffffffffffffffffffffffffffffffffffffff166128ee83610fa0565b73ffffffffffffffffffffffffffffffffffffffff167f8c5be1e5ebec7d5bd14f71427d1e84f3dd0314c0f7b2291e5b200ac8c7c3b92560405160405180910390a45050565b600061293f82612807565b61297e576040517f08c379a00000000000000000000000000000000000000000000000000000000081526004016129759061467f565b60405180910390fd5b600061298983610fa0565b90508073ffffffffffffffffffffffffffffffffffffffff168473ffffffffffffffffffffffffffffffffffffffff1614806129f857508373ffffffffffffffffffffffffffffffffffffffff166129e0846109a3565b73ffffffffffffffffffffffffffffffffffffffff16145b80612a095750612a08818561215c565b5b91505092915050565b8273ffffffffffffffffffffffffffffffffffffffff16612a3282610fa0565b73ffffffffffffffffffffffffffffffffffffffff1614612a88576040517f08c379a0000000000000000000000000000000000000000000000000000000008152600401612a7f9061457f565b60405180910390fd5b600073ffffffffffffffffffffffffffffffffffffffff168273ffffffffffffffffffffffffffffffffffffffff161415612af8576040517f08c379a0000000000000000000000000000000000000000000000000000000008152600401612aef906145ff565b60405180910390fd5b612b03838383613252565b612b0e60008261287b565b6001600360008573ffffffffffffffffffffffffffffffffffffffff1673ffffffffffffffffffffffffffffffffffffffff1681526020019081526020016000206000828254612b5e9190614be0565b925050819055506001600360008473ffffffffffffffffffffffffffffffffffffffff1673ffffffffffffffffffffffffffffffffffffffff1681526020019081526020016000206000828254612bb59190614aff565b92505081905550816002600083815260200190815260200160002060006101000a81548173ffffffffffffffffffffffffffffffffffffffff021916908373ffffffffffffffffffffffffffffffffffffffff160217905550808273ffffffffffffffffffffffffffffffffffffffff168473ffffffffffffffffffffffffffffffffffffffff167fddf252ad1be2c89b69c2b068fc378daa952ba7f163c4a11628f55a4df523b3ef60405160405180910390a4612c74838383613257565b505050565b6000600660009054906101000a900473ffffffffffffffffffffffffffffffffffffffff16905081600660006101000a81548173ffffffffffffffffffffffffffffffffffffffff021916908373ffffffffffffffffffffffffffffffffffffffff1602179055508173ffffffffffffffffffffffffffffffffffffffff168173ffffffffffffffffffffffffffffffffffffffff167f8be0079c531659141344cd1fd0a4f28419497f9722a3daafe3b4186f6b6457e060405160405180910390a35050565b60008273ffffffffffffffffffffffffffffffffffffffff1682604051612d659061444b565b60006040518083038185875af1925050503d8060008114612da2576040519150601f19603f3d011682016040523d82523d6000602084013e612da7565b606091505b5050905080612deb576040517f08c379a0000000000000000000000000000000000000000000000000000000008152600401612de2906148bf565b60405180910390fd5b505050565b6000612dfa61325c565b9050601481118015612e0d575060648111155b612e40577f4e487b7100000000000000000000000000000000000000000000000000000000600052600160045260246000fd5b612e4a8282613234565b5050565b8173ffffffffffffffffffffffffffffffffffffffff168373ffffffffffffffffffffffffffffffffffffffff161415612ebd576040517f08c379a0000000000000000000000000000000000000000000000000000000008152600401612eb49061461f565b60405180910390fd5b80600560008573ffffffffffffffffffffffffffffffffffffffff1673ffffffffffffffffffffffffffffffffffffffff16815260200190815260200160002060008473ffffffffffffffffffffffffffffffffffffffff1673ffffffffffffffffffffffffffffffffffffffff16815260200190815260200160002060006101000a81548160ff0219169083151502179055508173ffffffffffffffffffffffffffffffffffffffff168373ffffffffffffffffffffffffffffffffffffffff167f17307eab39ab6107e8899845ad3d59bd9653f200f220920489ca2b5937696c3183604051612fae91906144c7565b60405180910390a3505050565b6000600e60008373ffffffffffffffffffffffffffffffffffffffff1673ffffffffffffffffffffffffffffffffffffffff16815260200190815260200160002060010160009054906101000a900460ff169050919050565b61301f848484612a12565b61302b848484846133be565b61306a576040517f08c379a00000000000000000000000000000000000000000000000000000000081526004016130619061453f565b60405180910390fd5b50505050565b606060405180602001604052806000815250905090565b606060008214156130cf576040518060400160405280600181526020017f3000000000000000000000000000000000000000000000000000000000000000815250905061322f565b600082905060005b600082146131015780806130ea90614d64565b915050600a826130fa9190614b55565b91506130d7565b60008167ffffffffffffffff811115613143577f4e487b7100000000000000000000000000000000000000000000000000000000600052604160045260246000fd5b6040519080825280601f01601f1916602001820160405280156131755781602001600182028036833780820191505090505b5090505b600085146132285760018261318e9190614be0565b9150600a8561319d9190614ded565b60306131a99190614aff565b60f81b8183815181106131e5577f4e487b7100000000000000000000000000000000000000000000000000000000600052603260045260246000fd5b60200101907effffffffffffffffffffffffffffffffffffffffffffffffffffffffffffff1916908160001a905350600a856132219190614b55565b9450613179565b8093505050505b919050565b61324e828260405180602001604052806000815250613555565b5050565b505050565b505050565b600080613267611462565b61326f610b40565b6132799190614be0565b905060008133414445426040516020016132979594939291906143c8565b6040516020818303038152906040528051906020012060001c6132ba9190614ded565b9050600080600860008481526020019081526020016000205414156132e1578190506132f8565b600860008381526020019081526020016000205490505b60006008600060018661330b9190614be0565b81526020019081526020016000205414156133495760018361332d9190614be0565b6008600084815260200190815260200160002081905550613381565b6008600060018561335a9190614be0565b81526020019081526020016000205460086000848152602001908152602001600020819055505b6133896135b0565b507f0000000000000000000000000000000000000000000000000000000000000000816133b69190614aff565b935050505090565b60006133df8473ffffffffffffffffffffffffffffffffffffffff16613617565b15613548578373ffffffffffffffffffffffffffffffffffffffff1663150b7a02613408612873565b8786866040518563ffffffff1660e01b815260040161342a949392919061447b565b602060405180830381600087803b15801561344457600080fd5b505af192505050801561347557506040513d601f19601f820116820180604052508101906134729190613cf7565b60015b6134f8573d80600081146134a5576040519150601f19603f3d011682016040523d82523d6000602084013e6134aa565b606091505b506000815114156134f0576040517f08c379a00000000000000000000000000000000000000000000000000000000081526004016134e79061453f565b60405180910390fd5b805181602001fd5b63150b7a0260e01b7bffffffffffffffffffffffffffffffffffffffffffffffffffffffff1916817bffffffffffffffffffffffffffffffffffffffffffffffffffffffff19161491505061354d565b600190505b949350505050565b61355f838361363a565b61356c60008484846133be565b6135ab576040517f08c379a00000000000000000000000000000000000000000000000000000000081526004016135a29061453f565b60405180910390fd5b505050565b6000806135bb611d84565b116135fb576040517f08c379a00000000000000000000000000000000000000000000000000000000081526004016135f29061465f565b60405180910390fd5b6007600081548092919061360e90614d64565b91905055905090565b6000808273ffffffffffffffffffffffffffffffffffffffff163b119050919050565b600073ffffffffffffffffffffffffffffffffffffffff168273ffffffffffffffffffffffffffffffffffffffff1614156136aa576040517f08c379a00000000000000000000000000000000000000000000000000000000081526004016136a19061471f565b60405180910390fd5b6136b381612807565b156136f3576040517f08c379a00000000000000000000000000000000000000000000000000000000081526004016136ea9061459f565b60405180910390fd5b6136ff60008383613252565b6001600360008473ffffffffffffffffffffffffffffffffffffffff1673ffffffffffffffffffffffffffffffffffffffff168152602001908152602001600020600082825461374f9190614aff565b92505081905550816002600083815260200190815260200160002060006101000a81548173ffffffffffffffffffffffffffffffffffffffff021916908373ffffffffffffffffffffffffffffffffffffffff160217905550808273ffffffffffffffffffffffffffffffffffffffff16600073ffffffffffffffffffffffffffffffffffffffff167fddf252ad1be2c89b69c2b068fc378daa952ba7f163c4a11628f55a4df523b3ef60405160405180910390a461381060008383613257565b5050565b600061382761382284614a28565b614a03565b9050808382526020820190508285602086028201111561384657600080fd5b60005b85811015613876578161385c888261392a565b845260208401935060208301925050600181019050613849565b5050509392505050565b600061389361388e84614a54565b614a03565b905080838252602082019050828560208602820111156138b257600080fd5b60005b858110156138e257816138c88882613a11565b8452602084019350602083019250506001810190506138b5565b5050509392505050565b60006138ff6138fa84614a80565b614a03565b90508281526020810184848401111561391757600080fd5b613922848285614cbf565b509392505050565b600081359050613939816157b1565b92915050565b600082601f83011261395057600080fd5b8135613960848260208601613814565b91505092915050565b600082601f83011261397a57600080fd5b813561398a848260208601613880565b91505092915050565b6000813590506139a2816157c8565b92915050565b6000813590506139b7816157df565b92915050565b6000815190506139cc816157df565b92915050565b600082601f8301126139e357600080fd5b81356139f38482602086016138ec565b91505092915050565b600081359050613a0b816157f6565b92915050565b600081359050613a2081615806565b92915050565b600060208284031215613a3857600080fd5b6000613a468482850161392a565b91505092915050565b60008060408385031215613a6257600080fd5b6000613a708582860161392a565b9250506020613a818582860161392a565b9150509250929050565b600080600060608486031215613aa057600080fd5b6000613aae8682870161392a565b9350506020613abf8682870161392a565b9250506040613ad086828701613a11565b9150509250925092565b60008060008060808587031215613af057600080fd5b6000613afe8782880161392a565b9450506020613b0f8782880161392a565b9350506040613b2087828801613a11565b925050606085013567ffffffffffffffff811115613b3d57600080fd5b613b49878288016139d2565b91505092959194509250565b60008060408385031215613b6857600080fd5b6000613b768582860161392a565b925050602083013567ffffffffffffffff811115613b9357600080fd5b613b9f85828601613969565b9150509250929050565b60008060408385031215613bbc57600080fd5b6000613bca8582860161392a565b9250506020613bdb85828601613993565b9150509250929050565b60008060408385031215613bf857600080fd5b6000613c068582860161392a565b9250506020613c1785828601613a11565b9150509250929050565b600060208284031215613c3357600080fd5b600082013567ffffffffffffffff811115613c4d57600080fd5b613c598482850161393f565b91505092915050565b60008060408385031215613c7557600080fd5b600083013567ffffffffffffffff811115613c8f57600080fd5b613c9b8582860161393f565b925050602083013567ffffffffffffffff811115613cb857600080fd5b613cc485828601613969565b9150509250929050565b600060208284031215613ce057600080fd5b6000613cee848285016139a8565b91505092915050565b600060208284031215613d0957600080fd5b6000613d17848285016139bd565b91505092915050565b600060208284031215613d3257600080fd5b6000613d40848285016139fc565b91505092915050565b600060208284031215613d5b57600080fd5b6000613d6984828501613a11565b91505092915050565b613d83613d7e82614c26565b614dbf565b82525050565b613d9281614c14565b82525050565b613da9613da482614c14565b614dad565b82525050565b613db881614c38565b82525050565b6000613dc982614ab1565b613dd38185614ac7565b9350613de3818560208601614cce565b613dec81614f09565b840191505092915050565b613e0081614cad565b82525050565b6000613e1182614abc565b613e1b8185614ae3565b9350613e2b818560208601614cce565b613e3481614f09565b840191505092915050565b6000613e4a82614abc565b613e548185614af4565b9350613e64818560208601614cce565b80840191505092915050565b6000613e7d601383614ae3565b9150613e8882614f27565b602082019050919050565b6000613ea0603283614ae3565b9150613eab82614f50565b604082019050919050565b6000613ec3602683614ae3565b9150613ece82614f9f565b604082019050919050565b6000613ee6602583614ae3565b9150613ef182614fee565b604082019050919050565b6000613f09601c83614ae3565b9150613f148261503d565b602082019050919050565b6000613f2c600f83614ae3565b9150613f3782615066565b602082019050919050565b6000613f4f602883614ae3565b9150613f5a8261508f565b604082019050919050565b6000613f72602483614ae3565b9150613f7d826150de565b604082019050919050565b6000613f95601983614ae3565b9150613fa08261512d565b602082019050919050565b6000613fb8601f83614ae3565b9150613fc382615156565b602082019050919050565b6000613fdb601883614ae3565b9150613fe68261517f565b602082019050919050565b6000613ffe602c83614ae3565b9150614009826151a8565b604082019050919050565b6000614021603883614ae3565b915061402c826151f7565b604082019050919050565b6000614044602a83614ae3565b915061404f82615246565b604082019050919050565b6000614067602983614ae3565b915061407282615295565b604082019050919050565b600061408a601683614ae3565b9150614095826152e4565b602082019050919050565b60006140ad602083614ae3565b91506140b88261530d565b602082019050919050565b60006140d0600b83614ae3565b91506140db82615336565b602082019050919050565b60006140f3602c83614ae3565b91506140fe8261535f565b604082019050919050565b6000614116602083614ae3565b9150614121826153ae565b602082019050919050565b6000614139603083614ae3565b9150614144826153d7565b604082019050919050565b600061415c601383614ae3565b915061416782615426565b602082019050919050565b600061417f602f83614ae3565b915061418a8261544f565b604082019050919050565b60006141a2602883614ae3565b91506141ad8261549e565b604082019050919050565b60006141c5601883614ae3565b91506141d0826154ed565b602082019050919050565b60006141e8602183614ae3565b91506141f382615516565b604082019050919050565b600061420b601683614ae3565b915061421682615565565b602082019050919050565b600061422e600f83614ae3565b91506142398261558e565b602082019050919050565b6000614251600083614ad8565b915061425c826155b7565b600082019050919050565b6000614274602283614ae3565b915061427f826155ba565b604082019050919050565b6000614297601083614ae3565b91506142a282615609565b602082019050919050565b60006142ba603183614ae3565b91506142c582615632565b604082019050919050565b60006142dd600883614ae3565b91506142e882615681565b602082019050919050565b6000614300601683614ae3565b915061430b826156aa565b602082019050919050565b6000614323601983614ae3565b915061432e826156d3565b602082019050919050565b6000614346601f83614ae3565b9150614351826156fc565b602082019050919050565b6000614369602183614ae3565b915061437482615725565b604082019050919050565b600061438c601f83614ae3565b915061439782615774565b602082019050919050565b6143ab81614ca3565b82525050565b6143c26143bd82614ca3565b614de3565b82525050565b60006143d48288613d98565b6014820191506143e48287613d72565b6014820191506143f482866143b1565b60208201915061440482856143b1565b60208201915061441482846143b1565b6020820191508190509695505050505050565b60006144338285613e3f565b915061443f8284613e3f565b91508190509392505050565b600061445682614244565b9150819050919050565b60006020820190506144756000830184613d89565b92915050565b60006080820190506144906000830187613d89565b61449d6020830186613d89565b6144aa60408301856143a2565b81810360608301526144bc8184613dbe565b905095945050505050565b60006020820190506144dc6000830184613daf565b92915050565b60006020820190506144f76000830184613df7565b92915050565b600060208201905081810360008301526145178184613e06565b905092915050565b6000602082019050818103600083015261453881613e70565b9050919050565b6000602082019050818103600083015261455881613e93565b9050919050565b6000602082019050818103600083015261457881613eb6565b9050919050565b6000602082019050818103600083015261459881613ed9565b9050919050565b600060208201905081810360008301526145b881613efc565b9050919050565b600060208201905081810360008301526145d881613f1f565b9050919050565b600060208201905081810360008301526145f881613f42565b9050919050565b6000602082019050818103600083015261461881613f65565b9050919050565b6000602082019050818103600083015261463881613f88565b9050919050565b6000602082019050818103600083015261465881613fab565b9050919050565b6000602082019050818103600083015261467881613fce565b9050919050565b6000602082019050818103600083015261469881613ff1565b9050919050565b600060208201905081810360008301526146b881614014565b9050919050565b600060208201905081810360008301526146d881614037565b9050919050565b600060208201905081810360008301526146f88161405a565b9050919050565b600060208201905081810360008301526147188161407d565b9050919050565b60006020820190508181036000830152614738816140a0565b9050919050565b60006020820190508181036000830152614758816140c3565b9050919050565b60006020820190508181036000830152614778816140e6565b9050919050565b6000602082019050818103600083015261479881614109565b9050919050565b600060208201905081810360008301526147b88161412c565b9050919050565b600060208201905081810360008301526147d88161414f565b9050919050565b600060208201905081810360008301526147f881614172565b9050919050565b6000602082019050818103600083015261481881614195565b9050919050565b60006020820190508181036000830152614838816141b8565b9050919050565b60006020820190508181036000830152614858816141db565b9050919050565b60006020820190508181036000830152614878816141fe565b9050919050565b6000602082019050818103600083015261489881614221565b9050919050565b600060208201905081810360008301526148b881614267565b9050919050565b600060208201905081810360008301526148d88161428a565b9050919050565b600060208201905081810360008301526148f8816142ad565b9050919050565b60006020820190508181036000830152614918816142d0565b9050919050565b60006020820190508181036000830152614938816142f3565b9050919050565b6000602082019050818103600083015261495881614316565b9050919050565b6000602082019050818103600083015261497881614339565b9050919050565b600060208201905081810360008301526149988161435c565b9050919050565b600060208201905081810360008301526149b88161437f565b9050919050565b60006020820190506149d460008301846143a2565b92915050565b60006040820190506149ef60008301856143a2565b6149fc6020830184613daf565b9392505050565b6000614a0d614a1e565b9050614a198282614d33565b919050565b6000604051905090565b600067ffffffffffffffff821115614a4357614a42614eda565b5b602082029050602081019050919050565b600067ffffffffffffffff821115614a6f57614a6e614eda565b5b602082029050602081019050919050565b600067ffffffffffffffff821115614a9b57614a9a614eda565b5b614aa482614f09565b9050602081019050919050565b600081519050919050565b600081519050919050565b600082825260208201905092915050565b600081905092915050565b600082825260208201905092915050565b600081905092915050565b6000614b0a82614ca3565b9150614b1583614ca3565b9250827fffffffffffffffffffffffffffffffffffffffffffffffffffffffffffffffff03821115614b4a57614b49614e1e565b5b828201905092915050565b6000614b6082614ca3565b9150614b6b83614ca3565b925082614b7b57614b7a614e4d565b5b828204905092915050565b6000614b9182614ca3565b9150614b9c83614ca3565b9250817fffffffffffffffffffffffffffffffffffffffffffffffffffffffffffffffff0483118215151615614bd557614bd4614e1e565b5b828202905092915050565b6000614beb82614ca3565b9150614bf683614ca3565b925082821015614c0957614c08614e1e565b5b828203905092915050565b6000614c1f82614c83565b9050919050565b6000614c3182614c83565b9050919050565b60008115159050919050565b60007fffffffff0000000000000000000000000000000000000000000000000000000082169050919050565b6000819050614c7e8261579d565b919050565b600073ffffffffffffffffffffffffffffffffffffffff82169050919050565b6000819050919050565b6000614cb882614c70565b9050919050565b82818337600083830152505050565b60005b83811015614cec578082015181840152602081019050614cd1565b83811115614cfb576000848401525b50505050565b60006002820490506001821680614d1957607f821691505b60208210811415614d2d57614d2c614eab565b5b50919050565b614d3c82614f09565b810181811067ffffffffffffffff82111715614d5b57614d5a614eda565b5b80604052505050565b6000614d6f82614ca3565b91507fffffffffffffffffffffffffffffffffffffffffffffffffffffffffffffffff821415614da257614da1614e1e565b5b600182019050919050565b6000614db882614dd1565b9050919050565b6000614dca82614dd1565b9050919050565b6000614ddc82614f1a565b9050919050565b6000819050919050565b6000614df882614ca3565b9150614e0383614ca3565b925082614e1357614e12614e4d565b5b828206905092915050565b7f4e487b7100000000000000000000000000000000000000000000000000000000600052601160045260246000fd5b7f4e487b7100000000000000000000000000000000000000000000000000000000600052601260045260246000fd5b7f4e487b7100000000000000000000000000000000000000000000000000000000600052602160045260246000fd5b7f4e487b7100000000000000000000000000000000000000000000000000000000600052602260045260246000fd5b7f4e487b7100000000000000000000000000000000000000000000000000000000600052604160045260246000fd5b6000601f19601f8301169050919050565b60008160601b9050919050565b7f436f756e742069732030206f722062656c6f7700000000000000000000000000600082015250565b7f4552433732313a207472616e7366657220746f206e6f6e20455243373231526560008201527f63656976657220696d706c656d656e7465720000000000000000000000000000602082015250565b7f4f776e61626c653a206e6577206f776e657220697320746865207a65726f206160008201527f6464726573730000000000000000000000000000000000000000000000000000602082015250565b7f4552433732313a207472616e736665722066726f6d20696e636f72726563742060008201527f6f776e6572000000000000000000000000000000000000000000000000000000602082015250565b7f4552433732313a20746f6b656e20616c7265616479206d696e74656400000000600082015250565b7f436f6e7472616374207061757365640000000000000000000000000000000000600082015250565b7f526571756573746564206e756d626572206f6620746f6b656e73206e6f74206160008201527f7661696c61626c65000000000000000000000000000000000000000000000000602082015250565b7f4552433732313a207472616e7366657220746f20746865207a65726f2061646460008201527f7265737300000000000000000000000000000000000000000000000000000000602082015250565b7f4552433732313a20617070726f766520746f2063616c6c657200000000000000600082015250565b7f45746865722076616c75652073656e74206973206e6f7420636f727265637400600082015250565b7f4e6f206d6f726520746f6b656e7320617661696c61626c650000000000000000600082015250565b7f4552433732313a206f70657261746f7220717565727920666f72206e6f6e657860008201527f697374656e7420746f6b656e0000000000000000000000000000000000000000602082015250565b7f4552433732313a20617070726f76652063616c6c6572206973206e6f74206f7760008201527f6e6572206e6f7220617070726f76656420666f7220616c6c0000000000000000602082015250565b7f4552433732313a2062616c616e636520717565727920666f7220746865207a6560008201527f726f206164647265737300000000000000000000000000000000000000000000602082015250565b7f4552433732313a206f776e657220717565727920666f72206e6f6e657869737460008201527f656e7420746f6b656e0000000000000000000000000000000000000000000000602082015250565b7f43616e206f6e6c79206368616e67652070686173657300000000000000000000600082015250565b7f4552433732313a206d696e7420746f20746865207a65726f2061646472657373600082015250565b7f4e6f742070726573616c65000000000000000000000000000000000000000000600082015250565b7f4552433732313a20617070726f76656420717565727920666f72206e6f6e657860008201527f697374656e7420746f6b656e0000000000000000000000000000000000000000602082015250565b7f4f776e61626c653a2063616c6c6572206973206e6f7420746865206f776e6572600082015250565b7f43616e206e6f7420616464206d6f726520616464726573736573207468616e2060008201527f617669616c61626c6520746f6b65736e00000000000000000000000000000000602082015250565b7f4d696e74696e67206e6f7420656e61626c656400000000000000000000000000600082015250565b7f4552433732314d657461646174613a2055524920717565727920666f72206e6f60008201527f6e6578697374656e7420746f6b656e0000000000000000000000000000000000602082015250565b7f43616e206e6f742061646420612077616c6c657420746861742068617320626560008201527f656e206164646564000000000000000000000000000000000000000000000000602082015250565b7f526573657276656420746f6b656e7320736f6c64206f75740000000000000000600082015250565b7f4552433732313a20617070726f76616c20746f2063757272656e74206f776e6560008201527f7200000000000000000000000000000000000000000000000000000000000000602082015250565b7f45786365656473206d6178696d756d20737570706c7900000000000000000000600082015250565b7f4e6f74207075626c69632073616c650000000000000000000000000000000000600082015250565b50565b7f50617965657320616e6420616d6f756e7473206c656e677468206d69736d617460008201527f6368000000000000000000000000000000000000000000000000000000000000602082015250565b7f5472616e73666572206661696c65642e00000000000000000000000000000000600082015250565b7f4552433732313a207472616e736665722063616c6c6572206973206e6f74206f60008201527f776e6572206e6f7220617070726f766564000000000000000000000000000000602082015250565b7f536f6c64206f7574000000000000000000000000000000000000000000000000600082015250565b7f45786365656473206d6178207065722077616c6c657400000000000000000000600082015250565b7f41646472657373206e6f7420696e207768697465206c69737400000000000000600082015250565b7f45786365656473207265736572766564206d6178696d756d20737570706c7900600082015250565b7f596f75206f6e6c792063616e206d696e742061206d6178696d756d206f66203160008201527f3000000000000000000000000000000000000000000000000000000000000000602082015250565b7f45786365656473206e756d626572206f66206561726e656420546f6b656e7300600082015250565b600381106157ae576157ad614e7c565b5b50565b6157ba81614c14565b81146157c557600080fd5b50565b6157d181614c38565b81146157dc57600080fd5b50565b6157e881614c44565b81146157f357600080fd5b50565b6003811061580357600080fd5b50565b61580f81614ca3565b811461581a57600080fd5b5056fea264697066735822122061268c2a99a64c5b4d70f7d71c3e9e855e17aa94fda0e68d9b4b97de789c4da464736f6c63430008040033",
  "linkReferences": {},
  "deployedLinkReferences": {}
}